:040000002CEF00F0F1
:060008005682E1EF12F048
:100018005680D8CF02F0E8CF03F0E0CF04F00E010D
:1000280033AB19EF00F01BEF00F024EF00F0EE0EF9
:10003800D46EA30ED36E010E0001F26F0E01339B36
:1000480004C0E0FF03C0E8FF02C0D8FF56901000CC
:0400580075EF14F03C
:100E000000253032643A253032643A2530326400AD
:100E1000253034642D253032642D253032640000B5
:100E200046C0D9FF47C0DAFFDECFF6FFDDCFF7FFC0
:100E3000000EF86E0800F550250AD8A422EF07F03E
:100E400024EF07F0B8EF08F046C0D9FF47C0DAFF3B
:100E5000DE2A000EDD22000E0001EF6F000EEE6FA5
:100E6000EEC052F0EFC053F0F069F169000E696F07
:100E7000000E686F84EF07F0528046C0D9FF47C06C
:100E8000DAFFDE2A000EDD2284EF07F052823DEF0A
:100E900007F052843DEF07F052863DEF07F052888D
:100EA0003DEF07F0000E696F010E686F84EF07F0E9
:100EB00046C0D9FF47C0DAFFDECFF6FFDDCFF7FF30
:100EC000000EF86E0800F5504A6E4B6A4B50000A4F
:100ED000D8B46DEF07F052EF07F04A50200AD8B4AB
:100EE0004CEF07F0030AD8B44FEF07F0080AD8B464
:100EF00049EF07F0060AD8B43CEF07F01D0AD8B452
:100F000046EF07F052EF07F068516911D8B48BEF44
:100F100007F08DEF07F058EF07F052A092EF07F0BF
:100F200094EF07F095EF07F0529246C0D9FF47C003
:100F3000DAFFDECFF6FFDDCFF7FF000EF86E080018
:100F4000F5502A0AD8A4A7EF07F0A9EF07F0D2EFCF
:100F500007F046C0D9FF47C0DAFFDE2A000EDD22C7
:100F600048C0D9FF49C0DAFFDFCF4AF0020EDE26C3
:100F7000DFCF4BF0000EDD224AC0D9FF4BC0DAFFB5
:100F8000DECFEEF0DDCFEFF0EFBFCBEF07F0C9EF34
:100F900007F018EF08F05280EE6DEF1FD8B0EF2B7E
:100FA00018EF08F046C0D9FF47C0DAFFDECF0CF0DB
:100FB000DDCF0DF020EC0BF00CC0EEF00DC0EFF02B
:100FC000E9EF07F046C0D9FF47C0DAFFDE2A000E7E
:100FD000DD22D00E4A6EFF0E4B6E46C0D9FF47C0D1
:100FE000DAFFDECFF6FFDDCFF7FF000EF86E080068
:100FF000F5504C6E4D6A4A504C264B504D224D5088
:101000000AE10A0E4C5CD8A008EF08F00BEF08F0DC
:10101000010E0CEF08F0000E00016A6F6B6B6A5155
:101020006B11D8A416EF08F018EF08F0E2EF07F004
:1010300046C0D9FF47C0DAFFDECFF6FFDDCFF7FFAE
:10104000000EF86E0800F550640AD8B42AEF08F0D4
:101050002CEF08F040EF08F046C0D9FF47C0DAFF98
:10106000DECFF6FFDDCFF7FF000EF86E0800F5507B
:10107000690AD8A43EEF08F040EF08F080EF08F0CE
:1010800046C0D9FF47C0DAFFDE2A000EDD2248C085
:10109000D9FF49C0DAFFDFCF4AF0020EDE26DFCFEC
:1010A0004BF0000EDD224AC0D9FF4BC0DAFFDECF85
:1010B00060F0DDCF61F0000E61BFFF0E626F636F05
:1010C000646F656F666F676F44C020F045C021F0A4
:1010D00060C022F061C023F062C024F063C025F03C
:1010E00064C026F065C027F066C028F067C029F00C
:1010F000D6EC08F020C044F021C045F0D5EF08F050
:1011000046C0D9FF47C0DAFFDECFF6FFDDCFF7FFDD
:10111000000EF86E0800F550250AD8A492EF08F0EA
:1011200094EF08F0ABEF08F046C0D9FF47C0DAFFF4
:10113000DE2A000EDD22000E066E250E056E44C06E
:1011400007F045C008F0ACEC10F0000E456E010E43
:10115000446ED5EF08F046C0D9FF47C0DAFFDE2A5B
:10116000000EDD22000E456E000E446ED5EF08F035
:1011700046C0D9FF47C0DAFFDECFF6FFDDCFF7FF6D
:10118000000EF86E0800F550056E066A44C007F0C0
:1011900045C008F0ACEC10F046C0D9FF47C0DAFFFC
:1011A000DE2A000EDD22A5EF08F0120022C03AF080
:1011B00023C03BF024C03CF025C03DF026C03EF0EB
:1011C00027C03FF028C040F029C041F041BEEBEFFE
:1011D00008F0EEEF08F0010EEFEF08F0000E386EA9
:1011E000396A38503910D8B4F8EF08F0FAEF08F03F
:1011F0000AEF09F0411E401E3F1E3E1E3D1E3C1ED2
:101200003B1E3A6C000E3B223C223D223E223F22F6
:10121000402241220001F1BF10EF09F012EF09F066
:1012200013EF09F05292F1BF20EF09F0F15106E1FE
:10123000F005D8B01EEF09F020EF09F026EF09F015
:10124000000E356E010E346E2AEF09F0F0C034F056
:10125000F1C035F0EEC036F0EFC037F0385039103D
:10126000D8A435EF09F037EF09F03EEF09F052A4AA
:101270003CEF09F03EEF09F041EF09F03606D8A047
:101280003706000E436E1F0E426E000E01011F6FE7
:10129000C6EF09F04206D8A04306000E4224D96EDC
:1012A000010E4320DA6E3AC005F03BC006F03CC0A8
:1012B00007F03DC008F03EC009F03FC00AF040C052
:1012C0000BF041C00CF00A0E0D6E000E0E6E000EFB
:1012D0000F6E000E106E000E116E000E126E000EDC
:1012E000136E000E146E84EC0DF005C02AF006C0DB
:1012F0002BF007C02CF008C02DF009C02EF00AC05A
:101300002FF00BC030F00CC031F02AC017F02CC009
:1013100018F0EAEC13F01750300FDF6E3406D8A047
:1013200035063606D8A037063AC005F03BC006F0B1
:101330003CC007F03DC008F03EC009F03FC00AF0D5
:1013400040C00BF041C00CF00A0E0D6E000E0E6E88
:10135000000E0F6E000E106E000E116E000E126E5B
:10136000000E136E000E146EC0EC0CF005C03AF0C7
:1013700006C03BF007C03CF008C03DF009C03EF09D
:101380000AC03FF00BC040F00CC041F043BED1EFAB
:1013900009F0435008E14204D8A0D1EF09F0D3EF9F
:1013A00009F003EF0AF03A503B103C103D103E109C
:1013B0003F1040104110D8A4E0EF09F0E2EF09F02F
:1013C0004AEF09F035BEEFEF09F0355006E134047D
:1013D000D8B0EDEF09F0EFEF09F04AEF09F037BEB2
:1013E000FAEF09F0375008E13604D8A0FAEF09F017
:1013F000FCEF09F003EF0AF052B201EF0AF003EF3D
:101400000AF04AEF09F038503910D8A40AEF0AF070
:101410000CEF0AF013EF0AF052A411EF0AF013EFE9
:101420000AF031EF0AF04206D8A0430638503910CE
:10143000D8A41DEF0AF01FEF0AF025EF0AF0000E06
:10144000336E2B0E326E29EF0AF0000E336E2D0E26
:10145000326E000E4224D96E010E4320DA6E32C085
:10146000DFFF20C015F021C016F0000E4224176ED9
:10147000010E4320186E36C019F037C01AF0D5ECB3
:1014800011F015C020F016C021F01200030E051453
:10149000116E000E0614126E11501210D8A453EFE4
:1014A0000AF055EF0AF068EF0AF0020E0718D8A408
:1014B0005CEF0AF05EEF0AF068EF0AF00850800A6D
:1014C000620FD8B066EF0AF068EF0AF000EF0BF099
:1014D000030E0514116E000E0614126E1150121038
:1014E000D8B475EF0AF077EF0AF08AEF0AF0020E2F
:1014F0000718D8A47EEF0AF080EF0AF08AEF0AF00E
:101500000850800A630FD8B088EF0AF08AEF0AF01B
:1015100000EF0BF00704D8B490EF0AF092EF0AF056
:10152000C8EF0AF0030E0718D8B499EF0AF09BEF42
:101530000AF0C8EF0AF0050E0718D8B4A2EF0AF0B7
:10154000A4EF0AF0C8EF0AF0070E0718D8B4ABEF03
:101550000AF0ADEF0AF0C8EF0AF0080E0718D8B489
:10156000B4EF0AF0B6EF0AF0C8EF0AF00A0E071857
:10157000D8B4BDEF0AF0BFEF0AF0C8EF0AF00C0EC6
:101580000718D8A4C6EF0AF0C8EF0AF0D2EF0AF0A5
:101590000850800A600FD8B0D0EF0AF0D2EF0AF0FE
:1015A00000EF0BF0040E0718D8B4D9EF0AF0DBEF08
:1015B0000AF0F6EF0AF0060E0718D8B4E2EF0AF0C8
:1015C000E4EF0AF0F6EF0AF0090E0718D8B4EBEFD3
:1015D0000AF0EDEF0AF0F6EF0AF00B0E0718D8A4A8
:1015E000F4EF0AF0F6EF0AF016EF0BF00850800A5D
:1015F000610FD8A0FEEF0AF000EF0BF016EF0BF032
:101600000728076E010E086E0750800A730FD8A0D6
:101610000CEF0BF00EEF0BF016EF0BF0010E0524A4
:10162000056E000E0620066E010E076E20EE05F018
:1016300000EE05F00B0EDBCFEBFFE806FCE212003C
:10164000000E1A6E000E196E000E136E000E126E52
:101650002CEF0BF00C4A0D2A010E186E0CC0F6FF91
:101660000DC0F7FF000EF86E0800F550200AD8B440
:101670003CEF0BF03EEF0BF05DEF0BF0F70E0E6E54
:10168000FF0E0F6E0CC0F6FF0DC0F7FF000EF86ED8
:101690000800F550106E116A0E5010260F501122DE
:1016A000115009E1050E105CD8A059EF0BF05BEF6B
:1016B0000BF05DEF0BF0000E186E18C014F0156AF9
:1016C00014501510D8A467EF0BF069EF0BF02AEF58
:1016D0000BF073EF0BF0000E136E010E126E0C4A3E
:1016E0000D2AACEF0BF00CC0F6FF0DC0F7FF000E9B
:1016F000F86E0800F5500E6E0F6A0F50000AD8B44D
:1017000084EF0BF0ACEF0BF00E502B0AD8B46FEF58
:101710000BF0060AD8B46BEF0BF0ACEF0BF019C06E
:1017200005F01AC006F0000E086E0A0E076E9DEC5A
:1017300014F00CC0F6FF0DC0F7FF000EF86E0800A5
:10174000F550055E000E065A300E0524196E000E87
:1017500006201A6E6FEF0BF0D00E0E6EFF0E0F6E9E
:101760000CC0F6FF0DC0F7FF000EF86E0800F55034
:10177000106E116A0E5010260F50112211500AE1FE
:101780000A0E105CD8A0C7EF0BF0CAEF0BF0010EE9
:10179000CBEF0BF0000E166E176A16501710D8A478
:1017A000D4EF0BF0D6EF0BF08FEF0BF012501310BD
:1017B000D8A4DDEF0BF0DFEF0BF0EDEF0BF019C06D
:1017C0000EF01AC00FF00E1E0F1E0E4A0F2A0EC08A
:1017D0000CF00FC00DF0F1EF0BF019C00CF01AC0B7
:1017E0000DF012000001F205D8A4F9EF0BF0FBEFA9
:1017F0000BF0B6EF0CF08B298B6F020E82EC13F01E
:10180000900E0001726F000E736F010E746F0E0E5A
:10181000756F8951766F776B76BF77078A51786FCE
:10182000796B78BF79078B517A6F7B6B7ABF7B07B7
:101830000BEC13F0900E086E000E096E41EC14F0E4
:1018400000018B51800A440FD8A029EF0CF02BEF38
:101850000CF0B4EF0CF080A630EF0CF034EF0CF08D
:10186000506A502A35EF0CF0506A504650465046A8
:1018700080505018F70B5018806E000E00018B6FCF
:101880008A298A6F8A51800A440FD8A04AEF0CF047
:101890004CEF0CF0B4EF0CF0000E8A6F8929896FC1
:1018A00020EE84F000EE05F00B0EDBCFEBFFE80638
:1018B000FCE2C8EC0EF020EE84F00B0EEBCFDBFF69
:1018C000E806FCE200018951800A680FD8A06BEF9E
:1018D0000CF06DEF0CF0B4EF0CF0000E896F87295F
:1018E000876F20EE84F000EE05F00B0EDBCFEBFFF0
:1018F000E806FCE246EC0AF020EE84F00B0EEBCF9B
:10190000DBFFE806FCE2010E82EC13F0B80E0001EA
:10191000726F000E736F100E746F0E0E756F84C0B1
:1019200076F085C077F08651786F796B78BF79074C
:1019300087517A6F7B6B7ABF7B070BEC13F0B80E85
:10194000086E000E096E41EC14F000018829886FC2
:101950008851800A780FD8A0B0EF0CF0B2EF0CF0ED
:10196000B4EF0CF0010E886F000EF26F20EE84F0E1
:1019700000EE84F00B0EDBCFEBFFE806FCE212007A
:10198000000E166E14BEC9EF0CF0C7EF0CF0DBEFC3
:101990000CF0141E131E121E111E101E0F1E0E1E02
:1019A0000D6C000E0E220F22102211221222132281
:1019B0001422010E166E0CBEE2EF0CF0E0EF0CF0FC
:1019C000F4EF0CF00C1E0B1E0A1E091E081E071E4B
:1019D000061E056C000E06220722082209220A2292
:1019E0000B220C22010E161A20EE17F0070EDE6AEB
:1019F000E806FDE20D500E100F101010111012101D
:101A000013101410D8B407EF0DF009EF0DF05BEFD1
:101A10000DF0010E156E17EF0DF0D8900D360E3645
:101A20000F3610361136123613361436152A14AE08
:101A30001CEF0DF01EEF0DF00DEF0DF0D8901736E6
:101A4000183619361A361B361C361D361E360D5002
:101A5000055C0E5006580F5007581050085811508A
:101A6000095812500A5813500B5814500C58D8A04B
:101A70003CEF0DF03EEF0DF04FEF0DF00D50055E19
:101A80000E50065A0F50075A1050085A1150095A52
:101A900012500A5A13500B5A14500C5A1780D890EF
:101AA000143213321232113210320F320E320D3222
:101AB000152E1EEF0DF01650D8B461EF0DF063EF48
:101AC0000DF073EF0DF01E1E1D1E1C1E1B1E1A1E98
:101AD000191E181E176C000E182219221A221B221A
:101AE0001C221D221E2217C005F018C006F019C0C6
:101AF00007F01AC008F01BC009F01CC00AF01DC096
:101B00000BF01EC00CF01200000E166E0CBE8DEF16
:101B10000DF08BEF0DF09FEF0DF00C1E0B1E0A1E4B
:101B2000091E081E071E061E056C000E062207224F
:101B3000082209220A220B220C22010E166E14BE64
:101B4000A6EF0DF0A4EF0DF0B6EF0DF0141E131E6E
:101B5000121E111E101E0F1E0E1E0D6C000E0E22E8
:101B60000F22102211221222132214220D500E10C5
:101B70000F1010101110121013101410D8B4C3EF5E
:101B80000DF0C5EF0DF00DEF0EF0010E156ED3EF59
:101B90000DF0D8900D360E360F361036113612363F
:101BA00013361436152A14AED8EF0DF0DAEF0DF017
:101BB000C9EF0DF00D50055C0E5006580F50075838
:101BC000105008581150095812500A5813500B5809
:101BD00014500C58D8A0EFEF0DF0F1EF0DF001EF1D
:101BE0000EF00D50055E0E50065A0F50075A105059
:101BF000085A1150095A12500A5A13500B5A1450CD
:101C00000C5AD890143213321232113210320F3271
:101C10000E320D32152EDAEF0DF01650D8B413EF48
:101C20000EF015EF0EF025EF0EF00C1E0B1E0A1E27
:101C3000091E081E071E061E056C000E062207223E
:101C4000082209220A220B220C2205C005F006C038
:101C500006F007C007F008C008F009C009F00AC084
:101C60000AF00BC00BF00CC00CF01200076E07C09E
:101C700005F0066A05BE060605A041EF0EF043EF2B
:101C80000EF046EF0EF07F8047EF0EF07F9007C01A
:101C900005F0066A05BE060605A251EF0EF053EFE9
:101CA0000EF056EF0EF07F8257EF0EF07F9207C0D6
:101CB00005F0066A05BE060605A461EF0EF063EFA7
:101CC0000EF066EF0EF0798467EF0EF0799407C09E
:101CD00005F0066A05BE060605A671EF0EF073EF65
:101CE0000EF076EF0EF07E8C77EF0EF07E9C07C044
:101CF00005F0066A05BE060605A881EF0EF083EF23
:101D00000EF086EF0EF0798887EF0EF0799807C015
:101D100005F0066A05BE060605AA91EF0EF093EFE0
:101D20000EF096EF0EF0798A97EF0EF0799A07C0D1
:101D300005F0066A05BE060605ACA1EF0EF0A3EF9E
:101D40000EF0A6EF0EF07E80A7EF0EF07E9007C09B
:101D500005F0066A05BE060605AEB1EF0EF0B3EF5C
:101D60000EF0B6EF0EF07A80B7EF0EF07A9007C063
:101D700005F0066A05BE060606A0C1EF0EF0C3EF29
:101D80000EF0C6EF0EF07A82C7EF0EF07A921200D4
:101D9000030E0718D8A4CFEF0EF0D1EF0EF007EF27
:101DA0000FF008C011F0126A11BE1206070E1126BC
:101DB000000E122212BEE6EF0EF0125009E1200EC4
:101DC000115CD8A0E6EF0EF0E8EF0EF007EF0FF091
:101DD000070E0918D8A4EFEF0EF0F1EF0EF007EFA1
:101DE0000FF00A04D8A4F7EF0EF0F9EF0EF007EFAA
:101DF0000FF01050D8A4FFEF0EF001EF0FF007EF37
:101E00000FF00A280A6E010E106E45EF0FF00A0E51
:101E10000718D8A40EEF0FF010EF0FF045EF0FF0FA
:101E200008C011F0126A11BE1206070E1126000E2C
:101E3000122212BE25EF0FF0125009E1200E115CA4
:101E4000D8A025EF0FF027EF0FF045EF0FF0070EAA
:101E50000918D8A42EEF0FF030EF0FF045EF0FF078
:101E6000020E0A18D8A437EF0FF039EF0FF045EF44
:101E70000FF01004D8A43FEF0FF041EF0FF045EF43
:101E80000FF00A040A6E000E106E20EE05F000EE50
:101E900005F00B0EDBCFEBFFE806FCE21200070EAD
:101EA0000001E16FE50EE06F0A0EE26F1E0EE36FB8
:101EB000060EE46F140EE56F000EE66F000EE76F7E
:101EC000070EE86F000EE96F000EEA6F010EEB6F70
:101ED000E1EC14F0B0EC14F0D3EC14F020EEE0F0F0
:101EE00000EE05F00B0EDBCFEBFFE806FCE2C9ECE1
:101EF00013F020EEE0F000EE06F00B0EDBCFEBFF70
:101F0000E806FCE25DEC13F00BEC15F08AEC14F043
:101F100020EEE0F000EE84F00B0EDBCFEBFFE806E6
:101F2000FCE2D1EC0FF020EEE0F000EE1CF00B0E26
:101F3000DBCFEBFFE806FCE236EC12F020EEE0F03F
:101F40000B0EEBCFDBFFE806FCE220EEE0F000EE4C
:101F500084F00B0EDBCFEBFFE806FCE2F2EC0BF0BB
:101F600020EEE0F00B0EEBCFDBFFE806FCE220EE0C
:101F7000E0F000EE11F00B0EDBCFEBFFE806FCE229
:101F800073EC11F020EEE0F00B0EEBCFDBFFE80678
:101F9000FCE20001E55136EC0EF093EF0FF02CEF70
:101FA00000F0839C839482968294859685927B9C94
:101FB0007B947A967A947D967D92040E516EA80E4B
:101FC000506E0C0EE82EFED7502EFCD7512EFAD7AD
:101FD000020E7AEC12F0F00EE82EFED7000E066E1E
:101FE000280E5BEC14F0F00EE82EFED7000E066E05
:101FF000280E5BEC14F0F00EE82EFED7000E066EF5
:10200000080E5BEC14F0F00EE82EFED7000E066E04
:10201000010E5BEC14F02A0E506E8E0EE82EFED7E9
:10202000502EFCD7000E066E060E5BEC14F0A00ED0
:1020300000D0E82EFDD7000E066E0C0E5BEC14F0FF
:10204000A00E00D0E82EFDD7010E82EC13F0900E0A
:102050000001726F000E736F100E746F0E0E756FAD
:1020600084C076F085C077F08651786F796B78BF41
:10207000790787517A6F7B6B7ABF7B070BEC13F084
:10208000900E086E000E096E41EC14F0120015500F
:102090001224056EE86AD8B0E82A15BEE80612BE1A
:1020A000E806066E000E086E020E076E11EC11F0C7
:1020B0000550196E16501324056EE86AD8B0E82A48
:1020C00016BEE80613BEE806066E000E086E020E87
:1020D000076E11EC11F005501A6E17501424056E9E
:1020E000E86AD8B0E82A17BEE80614BEE806066E0D
:1020F000000E086E020E076E11EC11F005501B6EFB
:102100001B50145C146E14BE8AEF10F088EF10F0B0
:102110008FEF10F014503C0F146E1304136E1A500E
:10212000135C136E13BE99EF10F097EF10F09EEF53
:1021300010F013503C0F136E1204126E1950125C03
:102140000C0F126E20EE0DF000EE0DF00B0EDBCF3B
:10215000EBFFE806FCE2120007500810D8B4B3EF1A
:1021600010F0B5EF10F0BEEF10F007500810D8A433
:10217000BCEF10F0BEEF10F0C3EF10F005500EEC06
:1021800015F010EF11F020EE04F00750D92608509A
:10219000DA22DE50DE10D8B4D0EF10F0D2EF10F01B
:1021A000EDEF10F020EE04F00750D9260850DA22A7
:1021B00010EE02F00750E1260850E222DE50E65C05
:1021C000E650800A0D6EDE50800A0D58D8B0EBEF55
:1021D00010F0EDEF10F010EF11F020EE02F00750CC
:1021E000D9260850DA22DECF09F0DDCF0AF007C089
:1021F000D9FF08C0DAFFDECF0BF0DDCF0CF00950BD
:102200000B24D96E0A500C20DA6E05C0DFFF20EED9
:1022100002F00750D9260850DA22DE2A000EDD220D
:102220001200000E0A6E08BE1AEF11F018EF11F03E
:1022300020EF11F0076C081ED8B0082A010E0A6EB4
:1022400006BE27EF11F025EF11F02DEF11F0056C10
:10225000061ED8B0062A010E0A1A000E0C6E000ED9
:102260000B6E07500810D8B438EF11F03AEF11F0A8
:1022700062EF11F0010E096E42EF11F0D8900736AF
:102280000836092A08AE47EF11F049EF11F03EEF8A
:1022900011F0D8900B360C360750055C08500658E4
:1022A000D8A055EF11F057EF11F05CEF11F0075087
:1022B000055E0850065A0B80D89008320732092E66
:1022C00049EF11F00A50D8B468EF11F06AEF11F03D
:1022D0006EEF11F00B6C0C1ED8B00C2A0BC005F081
:1022E0000CC006F012001604D8A479EF11F07BEFB1
:1022F00011F090EF11F01750D8A481EF11F083EF97
:1023000011F090EF11F01850D8A489EF11F08BEF75
:1023100011F090EF11F00E012B917C9ECBEF11F09C
:10232000050E1618D8A497EF11F099EF11F0CBEF26
:1023300011F01750D8A49FEF11F0A1EF11F0CBEFDF
:1023400011F01850D8A4A7EF11F0A9EF11F0CBEFBE
:1023500011F00E012B81EEEC14F01D6EDD0E1D64EC
:10236000B4EF11F0B6EF11F0B9EF11F07C8ECBEFB6
:1023700011F020EE11F000EE05F00B0EDBCFEBFFBD
:10238000E806FCE2C3EC14F020EE11F00B0EEBCFEC
:10239000DBFFE806FCE220EE11F000EE11F00B0E80
:1023A000DBCFEBFFE806FCE2120052A0DAEF11F0FF
:1023B000DCEF11F0E6EF11F017C00EF018C00FF0CF
:1023C00015C010F016C011F0A7EC13F01ABEEBEF19
:1023D00011F0EDEF11F0F3EF11F019C01EF01AC07B
:1023E0001FF0F7EF11F0000E1F6E000E1E6E000EB4
:1023F0001D6E000E1C6E09EF12F0000E066E200E10
:10240000056E15C007F016C008F0ACEC10F01C4AC1
:102410001D2A1E501C5C1D50800A1B6E1F50800A16
:102420001B58D8A016EF12F018EF12F0FDEF11F0C4
:1024300052B01DEF12F01FEF12F029EF12F017C08B
:102440000EF018C00FF015C010F016C011F0A7EC78
:1024500013F017C005F018C006F026EC14F01E505B
:102460000524156E1F500620166E12005504D8A4C0
:102470003CEF12F03EEF12F054EF12F020EE1CF0A1
:1024800000EE05F00B0EDBCFEBFFE806FCE2C3EC41
:1024900014F020EE1CF00B0EEBCFDBFFE806FCE2A5
:1024A000000E556E70EF12F05404D8A45AEF12F0DB
:1024B0005CEF12F070EF12F020EE1CF000EE0DF069
:1024C0000B0EDBCFEBFFE806FCE247EC10F020EE52
:1024D0001CF00B0EEBCFDBFFE806FCE2000E546EA7
:1024E00020EE1CF000EE1CF00B0EDBCFEBFFE8063D
:1024F000FCE21200056E05A080EF12F082EF12F0F0
:1025000085EF12F07A8686EF12F07A9605A28BEFAD
:1025100012F08DEF12F090EF12F07A8491EF12F03A
:102520007A9405A496EF12F098EF12F09BEF12F058
:102530007D869CEF12F07D9605A6A1EF12F0A3EF29
:1025400012F0A6EF12F07D82A7EF12F07D9204EC5C
:1025500015F01A0EE82EFED700D012006EC04EF015
:102560006FC04FF0000E0001ED6F000EEC6FCCEF6E
:1025700012F06CC044F06DC045F04E0E466E000E79
:10258000476E70C048F071C049F010EC07F044503D
:102590000001EC274550ED234EC0F6FF4FC0F7FF7A
:1025A000000EF86E0800F5500009D8A4DAEF12F01A
:1025B000DCEF12F0B9EF12F0ECC06CF0EDC06DF092
:1025C00012000E0135A1E7EF12F0E9EF12F009EF6A
:1025D00013F07CAEEEEF12F0F2EF12F0016A012A76
:1025E000F3EF12F0016A013201327C5001187F0BC7
:1025F00001187C6E7CBEFFEF12F001EF13F005EFC7
:1026000013F0010E556E07EF13F0010E546E0E011C
:10261000359156921100760E00017C6F000E7D6F91
:1026200072C07EF073C07FF0000E816F000E806F6D
:10263000000E836F000E826F7E0E6C6F000E6D6F4A
:1026400074C06EF075C06FF07C0E706F000E716F0D
:10265000AEEC12F0000180517225D96E81517321C8
:10266000DA6E000EDF6E1200010E0B6E200E0518E2
:102670000610D8B43EEF13F040EF13F059EF13F00B
:10268000F70E076EFF0E086E05C009F006C00AF0CF
:102690000750092608500A220A5009E1050E095C74
:1026A000D8A055EF13F057EF13F059EF13F0000EC9
:1026B0000B6E0BC005F0066A12000B50800A7F0FEC
:1026C000D8A065EF13F067EF13F071EF13F00B5024
:1026D000800A7B0FD8A06FEF13F071EF13F07FEF3C
:1026E00013F0EEEC14F0126EDD0E12647AEF13F0BC
:1026F0007CEF13F07FEF13F07C8E80EF13F07C9E65
:10270000849E1200086E0804D8A489EF13F08BEFA2
:1027100013F090EF13F0000E066E800E5BEC14F0D9
:10272000A00E00D0E82EFDD7020E0818D8A49BEF0B
:1027300013F09DEF13F0A2EF13F0000E066EC00E23
:102740005BEC14F0A00E00D0E82EFDD71200000EB6
:10275000146E000E136EB8EF13F012C005F0066A87
:1027600010C007F011C008F0ACEC10F0134A142AA6
:1027700013500E24D96E14500F20DA6EDF50126EF3
:102780001250D8A4C6EF13F0C8EF13F0ADEF13F05A
:1027900012000A50800A7F0FD8A0D1EF13F0D3EFB8
:1027A00013F0DDEF13F00A50800A7B0FD8A0DBEFA7
:1027B00013F0DDEF13F0E1EF13F00E012B81E3EFE7
:1027C00013F00E012B91298B21811F9BF28AF28C31
:1027D000F28E120018BEF7EF13F0185006E117043E
:1027E000D8B0F5EF13F0F7EF13F005EF14F017C0C2
:1027F00019F018C01AF0191E1A1E194A1A2A19C0FF
:1028000017F01AC018F009EF14F017C017F018C02D
:1028100018F01200D00E076EFF0E086E05C009F00A
:1028200006C00AF00750092608500A220A500AE199
:102830000A0E095CD8A01FEF14F022EF14F0010E6D
:1028400023EF14F0000E056E066A120005C007F0B3
:1028500006C008F02EEF14F0054A062A05C0D9FF7D
:1028600006C0DAFFDF50D8A438EF14F03AEF14F0C6
:102870002CEF14F00750055C056E08500658066EE4
:1028800012004EEF14F0010E066E08C0D9FF09C009
:10289000DAFFDF505BEC14F0084A092A08C0D9FFC0
:1028A00009C0DAFFDF50D8A458EF14F05AEF14F043
:1028B00043EF14F01200076E0650D8B462EF14F024
:1028C00064EF14F067EF14F07B8C68EF14F07B9CDE
:1028D00007380F0B7AEC12F007500F0B7AEC12F05E
:1028E000A00E00D0E82EFDD7120001EE00F0200E61
:1028F000EE6AE806FDE100EEECF0070EEE6AE8068F
:10290000FDE1556A546A536A526A56905692000124
:102910004FEF0FF07F907F9279947E9C7998799A0F
:102920007E907A907A92879087928194869C819803
:10293000819A869082908292120005500702F3CF0E
:1029400009F0F4CF0AF005500802F3500A260650A9
:102950000702F3500A2609C005F00AC006F012006B
:10296000868E0E01D251F80B0309D26FD351F80BAA
:102970000509D36FD083D089D183D181FAEC14F0CB
:102980000E01D08F12000AC00DF00BC00EF00CC06B
:102990000FF020EE05F000EE05F00B0EDBCFEBFFA5
:1029A000E806FCE21200D6501F0B4009D66ED6880E
:1029B000F00ED616D588EE0ED46EA30ED36ED58E3D
:1029C0001200868E0E01B48F0F015899FC0E581715
:1029D0002F0E5F6F60946088608E1200608060B020
:1029E000F4EF14F0F6EF14F0EFEF14F064CF05F00D
:1029F00005501200F30E0E01C617C691C751E00B29
:102A00001B09C76FC68F12007B840A0EE82EFED703
:0E2A100000D07B94120080868896120012007F
:020000040020DA
:10000000FF0FFF0FFF0FFF0FFF0FFF0FFF0FFF0F80
:020000040030CA
:0C000000AAFFFFFF9FFFFFFFFFFFFFFFB5
:00000001FF
