:040000002CEF00F0F1
:0600080055820EEF13F01B
:100018005580D8CF02F0E8CF03F0E0CF04F00E010E
:1000280033AB19EF00F01BEF00F024EF00F0EE0EF9
:10003800D46EA30ED36E010E0001C86F0E01339B60
:1000480004C0E0FF03C0E8FF02C0D8FF55901000CD
:04005800D1EF14F0E0
:100E000000253032643A253032643A2530326400AD
:100E1000253034642D253032642D253032640000B5
:100E200046C0D9FF47C0DAFFDECFF6FFDDCFF7FFC0
:100E3000000EF86E0800F550250AD8A422EF07F03E
:100E400024EF07F0B8EF08F046C0D9FF47C0DAFF3B
:100E5000DE2A000EDD22000E0001C56F000EC46FF9
:100E6000C4C051F0C5C052F0C669C769000E696FB1
:100E7000000E686F84EF07F0518046C0D9FF47C06D
:100E8000DAFFDE2A000EDD2284EF07F051823DEF0B
:100E900007F051843DEF07F051863DEF07F0518890
:100EA0003DEF07F0000E696F010E686F84EF07F0E9
:100EB00046C0D9FF47C0DAFFDECFF6FFDDCFF7FF30
:100EC000000EF86E0800F5504A6E4B6A4B50000A4F
:100ED000D8B46DEF07F052EF07F04A50200AD8B4AB
:100EE0004CEF07F0030AD8B44FEF07F0080AD8B464
:100EF00049EF07F0060AD8B43CEF07F01D0AD8B452
:100F000046EF07F052EF07F068516911D8B48BEF44
:100F100007F08DEF07F058EF07F051A092EF07F0C0
:100F200094EF07F095EF07F0519246C0D9FF47C004
:100F3000DAFFDECFF6FFDDCFF7FF000EF86E080018
:100F4000F5502A0AD8A4A7EF07F0A9EF07F0D2EFCF
:100F500007F046C0D9FF47C0DAFFDE2A000EDD22C7
:100F600048C0D9FF49C0DAFFDFCF4AF0020EDE26C3
:100F7000DFCF4BF0000EDD224AC0D9FF4BC0DAFFB5
:100F8000DECFC4F0DDCFC5F0C5BFCBEF07F0C9EFB2
:100F900007F018EF08F05180C46DC51FD8B0C52BFD
:100FA00018EF08F046C0D9FF47C0DAFFDECF0CF0DB
:100FB000DDCF0DF01FEC0BF00CC0C4F00DC0C5F080
:100FC000E9EF07F046C0D9FF47C0DAFFDE2A000E7E
:100FD000DD22D00E4A6EFF0E4B6E46C0D9FF47C0D1
:100FE000DAFFDECFF6FFDDCFF7FF000EF86E080068
:100FF000F5504C6E4D6A4A504C264B504D224D5088
:101000000AE10A0E4C5CD8A008EF08F00BEF08F0DC
:10101000010E0CEF08F0000E00016A6F6B6B6A5155
:101020006B11D8A416EF08F018EF08F0E2EF07F004
:1010300046C0D9FF47C0DAFFDECFF6FFDDCFF7FFAE
:10104000000EF86E0800F550640AD8B42AEF08F0D4
:101050002CEF08F040EF08F046C0D9FF47C0DAFF98
:10106000DECFF6FFDDCFF7FF000EF86E0800F5507B
:10107000690AD8A43EEF08F040EF08F080EF08F0CE
:1010800046C0D9FF47C0DAFFDE2A000EDD2248C085
:10109000D9FF49C0DAFFDFCF4AF0020EDE26DFCFEC
:1010A0004BF0000EDD224AC0D9FF4BC0DAFFDECF85
:1010B00060F0DDCF61F0000E61BFFF0E626F636F05
:1010C000646F656F666F676F44C020F045C021F0A4
:1010D00060C022F061C023F062C024F063C025F03C
:1010E00064C026F065C027F066C028F067C029F00C
:1010F000D6EC08F020C044F021C045F0D5EF08F050
:1011000046C0D9FF47C0DAFFDECFF6FFDDCFF7FFDD
:10111000000EF86E0800F550250AD8A492EF08F0EA
:1011200094EF08F0ABEF08F046C0D9FF47C0DAFFF4
:10113000DE2A000EDD22000E066E250E056E44C06E
:1011400007F045C008F0D3EC0FF0000E456E010E1D
:10115000446ED5EF08F046C0D9FF47C0DAFFDE2A5B
:10116000000EDD22000E456E000E446ED5EF08F035
:1011700046C0D9FF47C0DAFFDECFF6FFDDCFF7FF6D
:10118000000EF86E0800F550056E066A44C007F0C0
:1011900045C008F0D3EC0FF046C0D9FF47C0DAFFD6
:1011A000DE2A000EDD22A5EF08F0120022C03AF080
:1011B00023C03BF024C03CF025C03DF026C03EF0EB
:1011C00027C03FF028C040F029C041F041BEEBEFFE
:1011D00008F0EEEF08F0010EEFEF08F0000E386EA9
:1011E000396A38503910D8B4F8EF08F0FAEF08F03F
:1011F0000AEF09F0411E401E3F1E3E1E3D1E3C1ED2
:101200003B1E3A6C000E3B223C223D223E223F22F6
:10121000402241220001C7BF10EF09F012EF09F090
:1012200013EF09F05192C7BF20EF09F0C75106E153
:10123000C605D8B01EEF09F020EF09F026EF09F03F
:10124000000E356E010E346E2AEF09F0C6C034F080
:10125000C7C035F0C4C036F0C5C037F038503910BB
:10126000D8A435EF09F037EF09F03EEF09F051A4AB
:101270003CEF09F03EEF09F041EF09F03606D8A047
:101280003706000E436E1F0E426E000EE86FC5EF6C
:1012900009F04206D8A04306C90E4224D96E000EBA
:1012A0004320DA6E3AC005F03BC006F03CC007F0C0
:1012B0003DC008F03EC009F03FC00AF040C00BF04E
:1012C00041C00CF00A0E0D6E000E0E6E000E0F6E79
:1012D000000E106E000E116E000E126E000E136ED8
:1012E000000E146E83EC0DF005C02AF006C02BF042
:1012F00007C02CF008C02DF009C02EF00AC02FF056
:101300000BC030F00CC031F02AC017F02CC018F020
:1013100017EC14F01750300FDF6E3406D8A03506E6
:101320003606D8A037063AC005F03BC006F03CC0F0
:1013300007F03DC008F03EC009F03FC00AF040C0D1
:101340000BF041C00CF00A0E0D6E000E0E6E000E7A
:101350000F6E000E106E000E116E000E126E000E5B
:10136000136E000E146EBFEC0CF005C03AF006C010
:101370003BF007C03CF008C03DF009C03EF00AC099
:101380003FF00BC040F00CC041F043BED0EF09F07D
:10139000435008E14204D8A0D0EF09F0D2EF09F0A1
:1013A00002EF0AF03A503B103C103D103E103F1047
:1013B00040104110D8A4DFEF09F0E1EF09F049EF48
:1013C00009F035BEEEEF09F0355006E13404D8B02F
:1013D000ECEF09F0EEEF09F049EF09F037BEF9EF55
:1013E00009F0375008E13604D8A0F9EF09F0FBEF17
:1013F00009F002EF0AF051B200EF0AF002EF0AF032
:1014000049EF09F038503910D8A409EF0AF00BEF72
:101410000AF012EF0AF051A410EF0AF012EF0AF0EE
:1014200030EF0AF04206D8A0430638503910D8A44D
:101430001CEF0AF01EEF0AF024EF0AF0000E336EE4
:101440002B0E326E28EF0AF0000E336E2D0E326E28
:10145000C90E4224D96E000E4320DA6E32C0DFFF7F
:1014600020C015F021C016F0C90E4224176E000EE0
:101470004320186E36C019F037C01AF061EC11F035
:1014800015C020F016C021F01200030E0514106ED6
:10149000000E0614116E10501110D8A452EF0AF06D
:1014A00054EF0AF067EF0AF0020E0718D8A45BEFBA
:1014B0000AF05DEF0AF067EF0AF00850800A620F49
:1014C000D8B065EF0AF067EF0AF0FFEF0AF0030EFD
:1014D0000514106E000E0614116E10501110D8B4C1
:1014E00074EF0AF076EF0AF089EF0AF0020E07189F
:1014F000D8A47DEF0AF07FEF0AF089EF0AF00850D8
:10150000800A630FD8B087EF0AF089EF0AF0FFEF87
:101510000AF00704D8B48FEF0AF091EF0AF0C7EF92
:101520000AF0030E0718D8B498EF0AF09AEF0AF001
:10153000C7EF0AF0050E0718D8B4A1EF0AF0A3EF21
:101540000AF0C7EF0AF0070E0718D8B4AAEF0AF09E
:10155000ACEF0AF0C7EF0AF0080E0718D8B4B3EFE3
:101560000AF0B5EF0AF0C7EF0AF00A0E0718D8B470
:10157000BCEF0AF0BEEF0AF0C7EF0AF00C0E071836
:10158000D8A4C5EF0AF0C7EF0AF0D1EF0AF008506F
:10159000800A600FD8B0CFEF0AF0D1EF0AF0FFEF6A
:1015A0000AF0040E0718D8B4D8EF0AF0DAEF0AF000
:1015B000F5EF0AF0060E0718D8B4E1EF0AF0E3EFF2
:1015C0000AF0F5EF0AF0090E0718D8B4EAEF0AF0AE
:1015D000ECEF0AF0F5EF0AF00B0E0718D8A4F3EFC2
:1015E0000AF0F5EF0AF015EF0BF00850800A610FD2
:1015F000D8A0FDEF0AF0FFEF0AF015EF0BF0072877
:10160000076E010E086E0750800A730FD8A00BEF0B
:101610000BF00DEF0BF015EF0BF0010E0524056E2E
:10162000000E0620066E010E076E20EE05F000EE9D
:1016300005F00A0EDBCFEBFFE806FCE21200000E1D
:101640001A6E000E196E000E136E000E126E2BEF46
:101650000BF00C4A0D2A010E186E0CC0F6FF0DC0DF
:10166000F7FF000EF86E0800F550200AD8B43BEFE3
:101670000BF03DEF0BF05CEF0BF0F70E0E6EFF0E74
:101680000F6E0CC0F6FF0DC0F7FF000EF86E0800DD
:10169000F550106E116A0E5010260F501122115085
:1016A00009E1050E105CD8A058EF0BF05AEF0BF0D3
:1016B0005CEF0BF0000E186E18C014F0156A145091
:1016C0001510D8A466EF0BF068EF0BF029EF0BF0C4
:1016D00072EF0BF0000E136E010E126E0C4A0D2A03
:1016E000ABEF0BF00CC0F6FF0DC0F7FF000EF86E6D
:1016F0000800F5500E6E0F6A0F50000AD8B483EF41
:101700000BF0ABEF0BF00E502B0AD8B46EEF0BF0D2
:10171000060AD8B46AEF0BF0ABEF0BF019C005F076
:101720001AC006F0000E086E0A0E076E88EC14F060
:101730000CC0F6FF0DC0F7FF000EF86E0800F55064
:10174000055E000E065A300E0524196E000E0620A6
:101750001A6E6EEF0BF0D00E0E6EFF0E0F6E0CC0F9
:10176000F6FF0DC0F7FF000EF86E0800F550106E82
:10177000116A0E5010260F50112211500AE10A0E64
:10178000105CD8A0C6EF0BF0C9EF0BF0010ECAEF4A
:101790000BF0000E166E176A16501710D8A4D3EF70
:1017A0000BF0D5EF0BF08EEF0BF012501310D8A406
:1017B000DCEF0BF0DEEF0BF0ECEF0BF019C00EF0EE
:1017C0001AC00FF00E1E0F1E0E4A0F2A0EC00CF08C
:1017D0000FC00DF0F0EF0BF019C00CF01AC00DF0B7
:1017E00012000001C805D8A4F8EF0BF0FAEF0BF0D7
:1017F000B5EF0CF08B298B6F020E8AEC13F0000E04
:101800000001726F010E736F010E746F0E0E756F13
:101810008951766F776B76BF77078A51786F796BCE
:1018200078BF79078B517A6F7B6B7ABF7B0738EC77
:1018300013F0000E086E010E096E16EC12F0000196
:101840008B51800A440FD8A028EF0CF02AEF0CF03F
:10185000B3EF0CF080A62FEF0CF033EF0CF0506AD2
:10186000502A34EF0CF0506A504650465046805093
:101870005018F70B5018806E000E00018B6F8A29EC
:101880008A6F8A51800A440FD8A049EF0CF04BEFC1
:101890000CF0B3EF0CF0000E8A6F8929896F20EEEF
:1018A00084F000EE05F00A0EDBCFEBFFE806FCE269
:1018B00060EC0FF020EE84F00A0EEBCFDBFFE806C1
:1018C000FCE200018951800A680FD8A06AEF0CF091
:1018D0006CEF0CF0B3EF0CF0000E896F8729876F67
:1018E00020EE84F000EE05F00A0EDBCFEBFFE806F9
:1018F000FCE245EC0AF020EE84F00A0EEBCFDBFFB1
:10190000E806FCE2010E8AEC13F0280E0001726F6B
:10191000010E736F100E746F0E0E756F84C076F02B
:1019200085C077F08651786F796B78BF79078751DA
:101930007A6F7B6B7ABF7B0738EC13F0280E086E4A
:10194000010E096E16EC12F000018829886F88518B
:10195000800A780FD8A0AFEF0CF0B1EF0CF0B3EF26
:101960000CF0010E886F000EC86F20EE84F000EEC0
:1019700084F00A0EDBCFEBFFE806FCE21200000E5B
:10198000166E14BEC8EF0CF0C6EF0CF0DAEF0CF0D8
:10199000141E131E121E111E101E0F1E0E1E0D6C85
:1019A000000E0E220F2210221122122213221422C4
:1019B000010E166E0CBEE1EF0CF0DFEF0CF0F3EF52
:1019C0000CF00C1E0B1E0A1E091E081E071E061E0A
:1019D000056C000E06220722082209220A220B2289
:1019E0000C22010E161A20EE17F0070EDE6AE8062A
:1019F000FDE20D500E100F101010111012101310E8
:101A00001410D8B406EF0DF008EF0DF05AEF0DF0FA
:101A1000010E156E16EF0DF0D8900D360E360F36FE
:101A200010361136123613361436152A14AE1BEF43
:101A30000DF01DEF0DF00CEF0DF0D89017361836A5
:101A400019361A361B361C361D361E360D50055CEF
:101A50000E5006580F50075810500858115009588A
:101A600012500A5813500B5814500C58D8A03BEF82
:101A70000DF03DEF0DF04EEF0DF00D50055E0E50E8
:101A8000065A0F50075A1050085A1150095A12504E
:101A90000A5A13500B5A14500C5A1780D89014320B
:101AA00013321232113210320F320E320D32152E25
:101AB0001DEF0DF01650D8B460EF0DF062EF0DF091
:101AC00072EF0DF01E1E1D1E1C1E1B1E1A1E191E5F
:101AD000181E176C000E182219221A221B221C2213
:101AE0001D221E2217C005F018C006F019C007F00D
:101AF0001AC008F01BC009F01CC00AF01DC00BF092
:101B00001EC00CF01200000E166E0CBE8CEF0DF015
:101B10008AEF0DF09EEF0DF00C1E0B1E0A1E091E23
:101B2000081E071E061E056C000E0622072208224C
:101B300009220A220B220C22010E166E14BEA5EFFA
:101B40000DF0A3EF0DF0B5EF0DF0141E131E121ED5
:101B5000111E101E0F1E0E1E0D6C000E0E220F22E7
:101B6000102211221222132214220D500E100F10D7
:101B700010101110121013101410D8B4C2EF0DF081
:101B8000C4EF0DF00CEF0EF0010E156ED2EF0DF05C
:101B9000D8900D360E360F361036113612361336F3
:101BA0001436152A14AED7EF0DF0D9EF0DF0C8EFAB
:101BB0000DF00D50055C0E5006580F500758105090
:101BC00008581150095812500A5813500B58145005
:101BD0000C58D8A0EEEF0DF0F0EF0DF000EF0EF086
:101BE0000D50055E0E50065A0F50075A1050085AF5
:101BF0001150095A12500A5A13500B5A14500C5AC9
:101C0000D890143213321232113210320F320E3297
:101C10000D32152ED9EF0DF01650D8B412EF0EF08C
:101C200014EF0EF024EF0EF00C1E0B1E0A1E091E00
:101C3000081E071E061E056C000E0622072208223B
:101C400009220A220B220C2205C005F006C006F06C
:101C500007C007F008C008F009C009F00AC00AF080
:101C60000BC00BF00CC00CF01200070E0001B86F97
:101C7000E50EB76F0B0EB96F090EBA6F020EBB6F90
:101C8000070EBC6F1E0EBD6F000EBE6F070EBF6F3E
:101C9000000EC06F000EC16FEEEC14F0AEEC14F04D
:101CA000E0EC14F020EEB7F000EE05F00A0EDBCF0A
:101CB000EBFFE806FCE2F6EC13F020EEB7F000EEE6
:101CC00006F00A0EDBCFEBFFE806FCE2AFEC13F008
:101CD00021EC15F09BEC14F0C2EC11F0010E8AEC33
:101CE00013F08F0E0001726F000E736F100E746F81
:101CF0000E0E756FB7C076F0B8C077F0B951786F37
:101D0000796B78BF7907BA517A6F7B6B7ABF7B07A3
:101D100038EC13F08F0E086E000E096E16EC12F000
:101D200020EEB7F000EE1BF00A0EDBCFEBFFE8066B
:101D3000FCE263EC12F020EEB7F00A0EEBCFDBFF13
:101D4000E806FCE220EEB7F000EE84F00A0EDBCFEE
:101D5000EBFFE806FCE2F1EC0BF020EEB7F00A0E28
:101D6000EBCFDBFFE806FCE220EEB7F000EE10F070
:101D70000A0EDBCFEBFFE806FCE2FFEC10F020EEF2
:101D8000B7F00A0EEBCFDBFFE806FCE20001BC5126
:101D9000CEEC0EF090EF0EF02CEF00F0076E07C0C7
:101DA00005F0066A05BE060605A0D9EF0EF0DBEFCA
:101DB0000EF0DEEF0EF07F80DFEF0EF07F9007C0B9
:101DC00005F0066A05BE060605A2E9EF0EF0EBEF88
:101DD0000EF0EEEF0EF07F82EFEF0EF07F9207C075
:101DE00005F0066A05BE060605A4F9EF0EF0FBEF46
:101DF0000EF0FEEF0EF07984FFEF0EF0799407C03D
:101E000005F0066A05BE060605A609EF0FF00BEF02
:101E10000FF00EEF0FF07E8C0FEF0FF07E9C07C0DF
:101E200005F0066A05BE060605A819EF0FF01BEFC0
:101E30000FF01EEF0FF079881FEF0FF0799807C0B1
:101E400005F0066A05BE060605AA29EF0FF02BEF7E
:101E50000FF02EEF0FF0798A2FEF0FF0799A07C06D
:101E600005F0066A05BE060605AC39EF0FF03BEF3C
:101E70000FF03EEF0FF07E803FEF0FF07E9007C037
:101E800005F0066A05BE060605AE49EF0FF04BEFFA
:101E90000FF04EEF0FF07A804FEF0FF07A9007C0FF
:101EA00005F0066A05BE060606A059EF0FF05BEFC7
:101EB0000FF05EEF0FF07A825FEF0FF07A92120070
:101EC000030E0718D8A467EF0FF069EF0FF095EF36
:101ED0000FF008C010F0116A10BE1106070E102690
:101EE000000E112211BE7EEF0FF0115009E1200EFD
:101EF000105CD8A07EEF0FF080EF0FF095EF0FF0A1
:101F0000070E0918D8A487EF0FF089EF0FF095EFAF
:101F10000FF00A04D8A48FEF0FF091EF0FF095EFB8
:101F20000FF00A280A6EC9EF0FF00A0E0718D8A49E
:101F30009CEF0FF09EEF0FF0C9EF0FF008C010F00C
:101F4000116A10BE1106070E1026000E112211BED6
:101F5000B3EF0FF0115009E1200E105CD8A0B3EFE1
:101F60000FF0B5EF0FF0C9EF0FF0070E0918D8A466
:101F7000BCEF0FF0BEEF0FF0C9EF0FF0020E0A1822
:101F8000D8A4C5EF0FF0C7EF0FF0C9EF0FF00A04A8
:101F90000A6E20EE05F000EE05F00A0EDBCFEBFF37
:101FA000E806FCE2120007500810D8B4DAEF0FF090
:101FB000DCEF0FF0E5EF0FF007500810D8A4E3EFC7
:101FC0000FF0E5EF0FF0EAEF0FF0055024EC15F0FD
:101FD00037EF10F020EE04F00750D9260850DA222F
:101FE000DE50DE10D8B4F7EF0FF0F9EF0FF014EF7A
:101FF00010F020EE04F00750D9260850DA2210EE37
:1020000002F00750E1260850E222DE50E65CE6507E
:10201000800A0D6EDE50800A0D58D8B012EF10F015
:1020200014EF10F037EF10F020EE02F00750D92631
:102030000850DA22DECF09F0DDCF0AF007C0D9FF61
:1020400008C0DAFFDECF0BF0DDCF0CF009500B2417
:10205000D96E0A500C20DA6E05C0DFFF20EE02F0C8
:102060000750D9260850DA22DE2A000EDD2212009F
:1020700015501224056EE86AD8B0E82A15BEE806A5
:1020800012BEE806066E000E086E020E076E9DEC8C
:1020900010F00550186E16501324056EE86AD8B07B
:1020A000E82A16BEE80613BEE806066E000E086EA5
:1020B000020E076E9DEC10F00550196E1750142497
:1020C000056EE86AD8B0E82A17BEE80614BEE8062E
:1020D000066E000E086E020E076E9DEC10F00550A5
:1020E0001A6E1A50145C146E14BE7BEF10F079EF68
:1020F00010F080EF10F014503C0F146E1304136EA8
:102100001950135C136E13BE8AEF10F088EF10F0B5
:102110008FEF10F013503C0F136E1204126E185014
:10212000125C0C0F126E20EE0DF000EE0DF00A0E98
:10213000DBCFEBFFE806FCE21200000E0A6E08BEE1
:10214000A6EF10F0A4EF10F0ACEF10F0076C081E33
:10215000D8B0082A010E0A6E06BEB3EF10F0B1EF38
:1021600010F0B9EF10F0056C061ED8B0062A010E6B
:102170000A1A000E0C6E000E0B6E07500810D8B431
:10218000C4EF10F0C6EF10F0EEEF10F0010E096E84
:10219000CEEF10F0D89007360836092A08AED3EFF4
:1021A00010F0D5EF10F0CAEF10F0D8900B360C36C7
:1021B0000750055C08500658D8A0E1EF10F0E3EF97
:1021C00010F0E8EF10F00750055E0850065A0B803B
:1021D000D89008320732092ED5EF10F00A50D8B443
:1021E000F4EF10F0F6EF10F0FAEF10F00B6C0C1E9D
:1021F000D8B00C2A0BC005F00CC006F01200150474
:10220000D8A405EF11F007EF11F01CEF11F01650F4
:10221000D8A40DEF11F00FEF11F01CEF11F01750D3
:10222000D8A415EF11F017EF11F01CEF11F00E010B
:102230002B917C9E57EF11F0050E1518D8A423EFB3
:1022400011F025EF11F057EF11F01650D8A42BEF35
:1022500011F02DEF11F057EF11F01750D8A433EF14
:1022600011F035EF11F057EF11F00E012B81FBEC5F
:1022700014F01B6EDD0E1B6440EF11F042EF11F005
:1022800045EF11F07C8E57EF11F020EE10F000EECC
:1022900005F00A0EDBCFEBFFE806FCE2C1EC14F020
:1022A00020EE10F00A0EEBCFDBFFE806FCE220EE9A
:1022B00010F000EE10F00A0EDBCFEBFFE806FCE2B8
:1022C000120051A066EF11F068EF11F072EF11F0FB
:1022D00017C00EF018C00FF015C010F016C011F0A6
:1022E000D4EC13F01ABE77EF11F079EF11F07FEF15
:1022F00011F019C01EF01AC01FF083EF11F0000E8C
:102300001F6E000E1E6E000E1D6E000E1C6E95EFF1
:1023100011F0000E066E200E056E15C007F016C0F7
:1023200008F0D3EC0FF01C4A1D2A1E501C5C1D50F7
:10233000800A1B6E1F50800A1B58D8A0A2EF11F014
:10234000A4EF11F089EF11F051B0A9EF11F0ABEF4C
:1023500011F0B5EF11F017C00EF018C00FF015C056
:1023600010F016C011F0D4EC13F017C005F018C02F
:1023700006F053EC14F01E500524156E1F50062075
:10238000166E1200839C8394829682948596859221
:102390007B9C7B947A967A947D967D92040E096E4E
:1023A000A80E086E0C0EE82EFED7082EFCD7092EBC
:1023B000FAD7020EA7EC12F0F00EE82EFED7000EB0
:1023C000066E280E6EEC14F0F00EE82EFED7000E0E
:1023D000066E280E6EEC14F0F00EE82EFED7000EFE
:1023E000066E080E6EEC14F0F00EE82EFED7000E0E
:1023F000066E010E6EEC14F02A0E086E8E0EE82E9C
:10240000FED7082EFCD7000E066E060E6EEC14F0FA
:10241000A00E00D0E82EFDD7000E066E0C0E6EEC5E
:1024200014F0A00E00D0E82EFDD71200000E116EA1
:1024300026EF12F0010E066E08C0D9FF09C0DAFFC0
:10244000DF506EEC14F0084A092A112A08C0D9FF9F
:1024500009C0DAFFDF50D8A430EF12F032EF12F0EB
:102460001AEF12F0000E126E45EF12F0290E0B6EED
:10247000960E0A6E7F0EE82EFED70A2EFCD70B2E84
:10248000FAD700F011EC15F0122AF00E0A6EFF0ECA
:102490000B6E11500C6E0D6A0A500C260B500D225B
:1024A00012500E6E0F6A0C500E5C0F50800A106EA8
:1024B0000D50800A1058D8A060EF12F062EF12F0B1
:1024C00036EF12F012005404D8A469EF12F06BEF4B
:1024D00012F081EF12F020EE1BF000EE05F00A0E74
:1024E000DBCFEBFFE806FCE2C1EC14F020EE1BF0C2
:1024F0000A0EEBCFDBFFE806FCE2000E546E9DEF08
:1025000012F05304D8A487EF12F089EF12F09DEF78
:1025100012F020EE1BF000EE0DF00A0EDBCFEBFF09
:10252000E806FCE238EC10F020EE1BF00A0EEBCFD0
:10253000DBFFE806FCE2000E536E20EE1BF000EE1F
:102540001BF00A0EDBCFEBFFE806FCE21200056E83
:1025500005A0ADEF12F0AFEF12F0B2EF12F07A86F5
:10256000B3EF12F07A9605A2B8EF12F0BAEF12F0BC
:10257000BDEF12F07A84BEEF12F07A9405A4C3EF97
:1025800012F0C5EF12F0C8EF12F07D86C9EF12F01D
:102590007D9605A6CEEF12F0D0EF12F0D3EF12F039
:1025A0007D82D4EF12F07D921AEC15F01A0EE82E0F
:1025B000FED700D012006EC04EF06FC04FF0000E7C
:1025C0000001C36F000EC26FF9EF12F06CC044F04F
:1025D0006DC045F04E0E466E000E476E70C048F05E
:1025E00071C049F010EC07F044500001C22745507B
:1025F000C3234EC0F6FF4FC0F7FF000EF86E080071
:10260000F5500009D8A407EF13F009EF13F0E6EF37
:1026100012F0C2C06CF0C3C06DF012000E0135A103
:1026200014EF13F016EF13F036EF13F07CAE1BEF40
:1026300013F01FEF13F0016A012A20EF13F0016A73
:10264000013201327C5001187F0B01187C6E7CBE78
:102650002CEF13F02EEF13F032EF13F0010E546E47
:1026600034EF13F0010E536E0E01359155921100A7
:10267000760E00017C6F000E7D6F72C07EF073C01D
:102680007FF0000E816F000E806F000E836F000ED2
:10269000826F7E0E6C6F000E6D6F74C06EF075C031
:1026A0006FF07C0E706F000E716FDBEC12F00001AA
:1026B00080517225D96E81517321DA6E000EDF6E62
:1026C0001200010E0B6E200E05180610D8B46BEF29
:1026D00013F06DEF13F086EF13F0F70E076EFF0E99
:1026E000086E05C009F006C00AF007500926085018
:1026F0000A220A5009E1050E095CD8A082EF13F006
:1027000084EF13F086EF13F0000E0B6E0BC005F094
:10271000066A1200086E0804D8A491EF13F093EF34
:1027200013F098EF13F0000E066E800E6EEC14F0AE
:10273000A00E00D0E82EFDD7020E0818D8A4A3EFF3
:1027400013F0A5EF13F0AAEF13F0000E066EC00E03
:102750006EEC14F0A00E00D0E82EFDD712000B5046
:10276000800A7F0FD8A0B7EF13F0B9EF13F0C3EFD3
:1027700013F00B50800A7B0FD8A0C1EF13F0C3EF0A
:1027800013F0D1EF13F0FBEC14F0116EDD0E1164B9
:10279000CCEF13F0CEEF13F0D1EF13F07C8ED2EF2D
:1027A00013F07C9E849E1200000E146E000E136EB9
:1027B000E5EF13F012C005F0066A10C007F011C073
:1027C00008F0D3EC0FF0134A142A13500E24D96EDC
:1027D00014500F20DA6EDF50126E1250D8A4F3EFAF
:1027E00013F0F5EF13F0DAEF13F012000A50800A3D
:1027F0007F0FD8A0FEEF13F000EF14F00AEF14F0F3
:102800000A50800A7B0FD8A008EF14F00AEF14F0EA
:102810000EEF14F00E012B8110EF14F00E012B912E
:10282000298B21811F9BF28AF28CF28E120018BE36
:1028300024EF14F0185006E11704D8B022EF14F07A
:1028400024EF14F032EF14F017C019F018C01AF08A
:10285000191E1A1E194A1A2A19C017F01AC018F0A0
:1028600036EF14F017C017F018C018F01200D00E91
:10287000076EFF0E086E05C009F006C00AF007508B
:10288000092608500A220A500AE10A0E095CD8A05B
:102890004CEF14F04FEF14F0010E50EF14F0000E57
:1028A000056E066A120005C007F006C008F05BEF6F
:1028B00014F0054A062A05C0D9FF06C0DAFFDF502A
:1028C000D8A465EF14F067EF14F059EF14F0075037
:1028D000055C056E08500658066E1200076E06501D
:1028E000D8B475EF14F077EF14F07AEF14F07B8C16
:1028F0007BEF14F07B9C07380F0BA7EC12F007500E
:102900000F0BA7EC12F0A00E00D0E82EFDD712009E
:1029100005500702F3CF09F0F4CF0AF00550080282
:10292000F3500A2606500702F3500A2609C005F0A4
:102930000AC006F012007F907F9279947E9C79986D
:10294000799A7E907A907A92879087928194869CE9
:102950008198819A8690829082921200868E0E01D2
:10296000D251F80B0309D26FD351F80B0509D36F7D
:10297000D083D089D183D18107EC15F00E01D08F9F
:1029800012000AC00DF00BC00EF00CC00FF020EECC
:1029900005F000EE05F00A0EDBCFEBFFE806FCE2E7
:1029A000120000EEC2F0270EEE6AE806FDE1546A5E
:1029B000536A526A516A55905592000135EF0EF0F4
:1029C000D6501F0B4009D66ED688F00ED616D58885
:1029D000EE0ED46EA30ED36ED58E1200868E0E012F
:1029E000B48F0F015899FC0E58172F0E5F6F60942B
:1029F0006088608E1200608060B001EF15F003EF18
:102A000015F0FCEF14F064CF05F005501200F30E42
:102A10000E01C617C691C751E00B1B09C76FC68FC1
:102A20001200000E066E180E6EEC14F0F00EE82E7A
:102A3000FED712007B840A0EE82EFED700D07B94CE
:0A2A40001200808688961200120032
:020000040020DA
:10000000FF0FFF0FFF0FFF0FFF0FFF0FFF0FFF0F80
:020000040030CA
:0C000000AAFFFFFF9FFFFFFFFFFFFFFFB5
:00000001FF
