:040000003DEF00F0E0
:060008003682CAEF03F08E
:100018003680D8CF03F0E8CF04F0E0CF05F00E012A
:1000280033AB19EF00F01BEF00F035EF00F00B0ECB
:10003800D46EDB0ED36E010E346E80A626EF00F070
:100048002AEF00F0026A022A2BEF00F0026A024649
:100058000246024680500218F70B0218806E0E0105
:10006800339B05C0E0FF04C0E8FF03C0D8FF36900B
:10007800100071EF04F0030E0614116E000E071441
:10008800126E11501210D8A44CEF00F04EEF00F091
:1000980061EF00F0020E0818D8A455EF00F057EFF2
:1000A80000F061EF00F00950800A620FD8B05FEFEE
:1000B80000F061EF00F0F9EF00F0030E0614116E86
:1000C800000E0714126E11501210D8B46EEF00F023
:1000D80070EF00F083EF00F0020E0818D8A477EF55
:1000E80000F079EF00F083EF00F00950800A630F09
:1000F800D8B081EF00F083EF00F0F9EF00F00804CA
:10010800D8B489EF00F08BEF00F0C1EF00F0030ED8
:100118000818D8B492EF00F094EF00F0C1EF00F0A7
:10012800050E0818D8B49BEF00F09DEF00F0C1EF62
:1001380000F0070E0818D8B4A4EF00F0A6EF00F0FE
:10014800C1EF00F0080E0818D8B4ADEF00F0AFEF1B
:1001580000F0C1EF00F00A0E0818D8B4B6EF00F0AE
:10016800B8EF00F0C1EF00F00C0E0818D8A4BFEFEC
:1001780000F0C1EF00F0CBEF00F00950800A600FEB
:10018800D8B0C9EF00F0CBEF00F0F9EF00F0040EA3
:100198000818D8B4D2EF00F0D4EF00F0EFEF00F079
:1001A800060E0818D8B4DBEF00F0DDEF00F0EFEF33
:1001B80000F0090E0818D8B4E4EF00F0E6EF00F0FC
:1001C800EFEF00F00B0E0818D8A4EDEF00F0EFEFFA
:1001D80000F00FEF01F00950800A610FD8A0F7EF87
:1001E80000F0F9EF00F00FEF01F00828086E010E9B
:1001F800096E0850800A730FD8A005EF01F007EFC9
:1002080001F00FEF01F0010E0624066E000E072024
:10021800076E010E086E20EE06F000EE06F00A0EDC
:10022800DBCFEBFFE806FCE21200086E08C006F020
:10023800076A06BE070606A024EF01F026EF01F0C4
:1002480029EF01F07F802AEF01F07F9008C006F0C7
:10025800076A06BE070606A234EF01F036EF01F082
:1002680039EF01F07F823AEF01F07F9208C006F083
:10027800076A06BE070606A444EF01F046EF01F040
:1002880049EF01F079844AEF01F0799408C006F04B
:10029800076A06BE070606A654EF01F056EF01F0FE
:1002A80059EF01F07E8C5AEF01F07E9C08C006F0F1
:1002B800076A06BE070606A864EF01F066EF01F0BC
:1002C80069EF01F079886AEF01F0799808C006F0C3
:1002D800076A06BE070606AA74EF01F076EF01F07A
:1002E80079EF01F0798A7AEF01F0799A08C006F07F
:1002F800076A06BE070606AC84EF01F086EF01F038
:1003080089EF01F07E808AEF01F07E9008C006F048
:10031800076A06BE070606AE94EF01F096EF01F0F5
:1003280099EF01F07A809AEF01F07A9008C006F010
:10033800076A06BE070607A0A4EF01F0A6EF01F0C2
:10034800A9EF01F07A82AAEF01F07A921200070E63
:100358002A6EE50E296E0B0E2B6E070E2C6E070EFD
:100368002D6E040E2E6E3B0E2F6E3B0E306E070E5A
:10037800316E000E326E000E336E51EC04F068ECF4
:1003880004F01FEC04F07BEC04F078EC04F00CECC7
:1003980004F041EC04F020EE29F010EE1EF00A0EF5
:1003A800DBCFE3FFE806FCE220EE1EF000EE06F0ED
:1003B8000A0EDBCFEBFFE806FCE2F0EC03F03504B5
:1003C800D8A4E9EF01F0EBEF01F001EF02F020EE25
:1003D8001EF000EE06F00A0EDBCFEBFFE806FCE2AB
:1003E80031EC04F020EE1EF00A0EEBCFDBFFE8063E
:1003F800FCE2000E356E0CEF02F020EE1EF000EE6F
:100408000EF00A0EDBCFEBFFE806FCE26EEC03F021
:100418003404D8A412EF02F014EF02F028EF02F02F
:1004280020EE1EF000EE13F00A0EDBCFEBFFE8061D
:10043800FCE2A2EC02F020EE1EF00A0EEBCFDBFF8E
:10044800E806FCE2000E346E235019EC01F0D8EFF8
:1004580001F03DEF00F0030E0818D8A436EF02F0C3
:1004680038EF02F064EF02F009C011F0126A11BE11
:100478001206070E1126000E122212BE4DEF02F0D0
:10048800125009E1200E115CD8A04DEF02F04FEF99
:1004980002F064EF02F0070E0A18D8A456EF02F033
:1004A80058EF02F064EF02F00B04D8A45EEF02F0FC
:1004B80060EF02F064EF02F00B280B6E98EF02F089
:1004C8000A0E0818D8A46BEF02F06DEF02F098EF4F
:1004D80002F009C011F0126A11BE1206070E1126A9
:1004E800000E122212BE82EF02F0125009E1200E15
:1004F800115CD8A082EF02F084EF02F098EF02F0CE
:10050800070E0A18D8A48BEF02F08DEF02F098EFCF
:1005180002F0020E0B18D8A494EF02F096EF02F046
:1005280098EF02F00B040B6E20EE06F000EE06F0DA
:100538000A0EDBCFEBFFE806FCE212001A281A6E5F
:100548001A50800A440FD8A0ACEF02F0AEEF02F0C8
:1005580002EF03F0000E1A6E1928196E1950800A5E
:10056800440FD8A0BAEF02F0BCEF02F002EF03F09C
:10057800000E196E1828186E20EE13F000EE06F023
:100588000A0EDBCFEBFFE806FCE22FEC02F020EED0
:1005980013F00A0EEBCFDBFFE806FCE21850800AE6
:1005A800680FD8A0DAEF02F0DCEF02F002EF03F0F8
:1005B800000E186E1628166E20EE13F000EE06F0E8
:1005C8000A0EDBCFEBFFE806FCE23FEC00F020EE82
:1005D80013F00A0EEBCFDBFFE806FCE21728176ED4
:1005E8001750800A780FD8A0FCEF02F0FEEF02F057
:1005F80002EF03F0010E176E02EF03F020EE13F086
:1006080000EE13F00A0EDBCFEBFFE806FCE2120067
:10061800000E0B6E09BE15EF03F013EF03F01BEF8E
:1006280003F0086C091ED8B0092A010E0B6E07BE2C
:1006380022EF03F020EF03F028EF03F0066C071E0B
:10064800D8B0072A010E0B1A000E0D6E000E0C6EA4
:1006580008500910D8B433EF03F035EF03F05DEF1D
:1006680003F0010E0A6E3DEF03F0D8900836093604
:100678000A2A09AE42EF03F044EF03F039EF03F022
:10068800D8900C360D360850065C09500758D8A08B
:1006980050EF03F052EF03F057EF03F00850065EF7
:1006A8000950075A0C80D890093208320A2E44EFB4
:1006B80003F00B50D8B463EF03F065EF03F069EF74
:1006C80003F00C6C0D1ED8B00D2A0CC006F00DC03E
:1006D80007F0120016501324066EE86AD8B0E82A0C
:1006E80016BEE80613BEE806076E000E096E020E77
:1006F800086E0CEC03F00650196E17501424066EA1
:10070800E86AD8B0E82A17BEE80614BEE806076EFD
:10071800000E096E020E086E0CEC03F006501A6EFD
:1007280018501524066EE86AD8B0E82A18BEE806FC
:1007380015BEE806076E000E096E020E086E0CEC78
:1007480003F006501B6E1B50155C156E15BEB1EFFD
:1007580003F0AFEF03F0B6EF03F015503C0F156E42
:100768001404146E1A50145C146E14BEC0EF03F017
:10077800BEEF03F0C5EF03F014503C0F146E1304E2
:10078800136E1950135C0C0F136E12000E0135A175
:10079800D0EF03F0D2EF03F0EEEF03F07CAED7EF2B
:1007A80003F0DBEF03F0016A012ADCEF03F0016AD2
:1007B800013201327C5001187F0B01187C6E7CBE1F
:1007C800E8EF03F0EAEF03F0ECEF03F0010E356E0B
:1007D8000E013591369211000B50800A7F0FD8A078
:1007E800F8EF03F0FAEF03F009EF04F00B50800A7A
:1007F8007B0FD8B002EF04F004EF04F009EF04F027
:100808000E012B917C9E0BEF04F00E012B81120040
:100818007F907F9279947E9C7998799A7E907A904D
:100828007A92879087928194869C8198819A869003
:10083800829082921200868E0E01D251F80B030923
:10084800D26FD351F80B0509D36FD083D089D183E8
:100858005EEC04F00E01D08F12000BC00EF00CC03D
:100868000FF00DC010F020EE06F000EE06F00A0EB4
:10087800DBCFEBFFE806FCE21200D6501F0B400965
:10088800D66ED688D650F00B0809D66ED5880B0ED2
:10089800D46EDB0ED36ED58E1200868E0E01B48F09
:1008A8000F015899FC0E58172F0E5F6F60946088DF
:1008B800608E1200F30E0E01C617C691C751E00BE9
:1008C8001B09C76FC68F12000E01298B2B811F9B36
:1008D8002181F28AF28CF28E1200356A346A3690DF
:1008E80036920001ABEF01F08096889612007C9E4C
:0408F800849E1200C8
:020000040020DA
:10000000FF0FFF0FFF0FFF0FFF0FFF0FFF0FFF0F80
:020000040030CA
:0C000000AAFFFFFF9FFFFFFFFFFFFFFFB5
:00000001FF
