:040000003BEF00F0E2
:0600080027820EEF01F05B
:100018002780D8CF03F0E8CF04F0E0CF05F00E0139
:1000280033AB19EF00F01BEF00F033EF00F00B0ECD
:10003800D46EDB0ED36E80A624EF00F028EF00F01C
:10004800026A022A29EF00F0026A024602460246C4
:1000580080500218F70B0218806E0E01339B05C002
:10006800E0FF04C0E8FF03C0D8FF2790100099EF15
:1000780001F0086E08C006F0076A06BE070606A06B
:1000880048EF00F04AEF00F04DEF00F07F804EEFB0
:1000980000F07F9008C006F0076A06BE070606A2B1
:1000A80058EF00F05AEF00F05DEF00F07F825EEF4E
:1000B80000F07F9208C006F0076A06BE070606A48D
:1000C80068EF00F06AEF00F06DEF00F079846EEFF2
:1000D80000F0799408C006F0076A06BE070606A66F
:1000E80078EF00F07AEF00F07DEF00F07E8C7EEF85
:1000F80000F07E9C08C006F0076A06BE070606A840
:1001080088EF00F08AEF00F08DEF00F079888EEF2D
:1001180000F0799808C006F0076A06BE070606AA26
:1001280098EF00F09AEF00F09DEF00F0798A9EEFCB
:1001380000F0799A08C006F0076A06BE070606AC02
:10014800A8EF00F0AAEF00F0ADEF00F07E80AEEF70
:1001580000F07E9008C006F0076A06BE070606AEE5
:10016800B8EF00F0BAEF00F0BDEF00F07A80BEEF14
:1001780000F07A9008C006F0076A06BE070607A0D6
:10018800C8EF00F0CAEF00F0CDEF00F07A82CEEFB2
:1001980000F07A921200070E1D6EE50E1C6E0B0E13
:1001A8001E6E070E1F6E070E206E110E216E000EBA
:1001B800226E000E236E070E246E000E256E000EB2
:1001C800266E79EC01F090EC01F057EC01F0A1EC0F
:1001D80001F09EEC01F044EC01F069EC01F020EE36
:1001E8001CF010EE11F00A0EDBCFE3FFE806FCE28C
:1001F80016503DEC00F020EE11F000EE06F00A0E6D
:10020800DBCFEBFFE806FCE22BEC01F0FCEF00F0A3
:100218003BEF00F00E0135A114EF01F016EF01F0ED
:1002280029EF01F07CAE1BEF01F01FEF01F0016A2E
:10023800012A20EF01F0016A013201327C500118D5
:100248007F0B01187C6E0E013591279211000B046B
:10025800D8A431EF01F033EF01F038EF01F00E01CF
:100268002B917C9E43EF01F0050E0B18D8A43FEFAD
:1002780001F041EF01F043EF01F00E012B81120074
:100288007F907F9279947E9C7998799A7E907A90E3
:100298007A92879087928194869C8198819A869099
:1002A800829082921200868E0E01D251F80B0309B9
:1002B800D26FD351F80B0509D36FD083D089D1837E
:1002C80086EC01F00E01D08F1200D6501F0B4009AA
:1002D800D66ED688D650F00B0809D66ED5880B0E88
:1002E800D46EDB0ED36ED58E1200868E0E01B48FBF
:1002F8000F015899FC0E58172F0E5F6F6094608895
:10030800608E1200F30E0E01C617C691C751E00B9E
:100318001B09C76FC68F12000E01298B2B811F9BEB
:100328002181F28AF28CF28E120027902792000126
:10033800CFEF00F08096889612007C9E849E120073
:020000040020DA
:10000000FF0FFF0FFF0FFF0FFF0FFF0FFF0FFF0F80
:020000040030CA
:0C000000AAFFFFFF9FFFFFFFFFFFFFFFB5
:00000001FF
