:040000002CEF00F0F1
:060008005682CBEF12F05E
:100018005680D8CF02F0E8CF03F0E0CF04F00E010D
:1000280033AB19EF00F01BEF00F024EF00F0EE0EF9
:10003800D46EA30ED36E010E0001F06F0E01339B38
:1000480004C0E0FF03C0E8FF02C0D8FF56901000CC
:040058005FEF14F052
:100E000000253032643A253032643A2530326400AD
:100E1000253034642D253032642D253032640000B5
:100E200046C0D9FF47C0DAFFDECFF6FFDDCFF7FFC0
:100E3000000EF86E0800F550250AD8A422EF07F03E
:100E400024EF07F0B8EF08F046C0D9FF47C0DAFF3B
:100E5000DE2A000EDD22000E0001ED6F000EEC6FA9
:100E6000ECC052F0EDC053F0EE69EF69000E696F0F
:100E7000000E686F84EF07F0528046C0D9FF47C06C
:100E8000DAFFDE2A000EDD2284EF07F052823DEF0A
:100E900007F052843DEF07F052863DEF07F052888D
:100EA0003DEF07F0000E696F010E686F84EF07F0E9
:100EB00046C0D9FF47C0DAFFDECFF6FFDDCFF7FF30
:100EC000000EF86E0800F5504A6E4B6A4B50000A4F
:100ED000D8B46DEF07F052EF07F04A50200AD8B4AB
:100EE0004CEF07F0030AD8B44FEF07F0080AD8B464
:100EF00049EF07F0060AD8B43CEF07F01D0AD8B452
:100F000046EF07F052EF07F068516911D8B48BEF44
:100F100007F08DEF07F058EF07F052A092EF07F0BF
:100F200094EF07F095EF07F0529246C0D9FF47C003
:100F3000DAFFDECFF6FFDDCFF7FF000EF86E080018
:100F4000F5502A0AD8A4A7EF07F0A9EF07F0D2EFCF
:100F500007F046C0D9FF47C0DAFFDE2A000EDD22C7
:100F600048C0D9FF49C0DAFFDFCF4AF0020EDE26C3
:100F7000DFCF4BF0000EDD224AC0D9FF4BC0DAFFB5
:100F8000DECFECF0DDCFEDF0EDBFCBEF07F0C9EF3A
:100F900007F018EF08F05280EC6DED1FD8B0ED2B84
:100FA00018EF08F046C0D9FF47C0DAFFDECF0CF0DB
:100FB000DDCF0DF020EC0BF00CC0ECF00DC0EDF02F
:100FC000E9EF07F046C0D9FF47C0DAFFDE2A000E7E
:100FD000DD22D00E4A6EFF0E4B6E46C0D9FF47C0D1
:100FE000DAFFDECFF6FFDDCFF7FF000EF86E080068
:100FF000F5504C6E4D6A4A504C264B504D224D5088
:101000000AE10A0E4C5CD8A008EF08F00BEF08F0DC
:10101000010E0CEF08F0000E00016A6F6B6B6A5155
:101020006B11D8A416EF08F018EF08F0E2EF07F004
:1010300046C0D9FF47C0DAFFDECFF6FFDDCFF7FFAE
:10104000000EF86E0800F550640AD8B42AEF08F0D4
:101050002CEF08F040EF08F046C0D9FF47C0DAFF98
:10106000DECFF6FFDDCFF7FF000EF86E0800F5507B
:10107000690AD8A43EEF08F040EF08F080EF08F0CE
:1010800046C0D9FF47C0DAFFDE2A000EDD2248C085
:10109000D9FF49C0DAFFDFCF4AF0020EDE26DFCFEC
:1010A0004BF0000EDD224AC0D9FF4BC0DAFFDECF85
:1010B00060F0DDCF61F0000E61BFFF0E626F636F05
:1010C000646F656F666F676F44C020F045C021F0A4
:1010D00060C022F061C023F062C024F063C025F03C
:1010E00064C026F065C027F066C028F067C029F00C
:1010F000D6EC08F020C044F021C045F0D5EF08F050
:1011000046C0D9FF47C0DAFFDECFF6FFDDCFF7FFDD
:10111000000EF86E0800F550250AD8A492EF08F0EA
:1011200094EF08F0ABEF08F046C0D9FF47C0DAFFF4
:10113000DE2A000EDD22000E066E250E056E44C06E
:1011400007F045C008F096EC10F0000E456E010E59
:10115000446ED5EF08F046C0D9FF47C0DAFFDE2A5B
:10116000000EDD22000E456E000E446ED5EF08F035
:1011700046C0D9FF47C0DAFFDECFF6FFDDCFF7FF6D
:10118000000EF86E0800F550056E066A44C007F0C0
:1011900045C008F096EC10F046C0D9FF47C0DAFF12
:1011A000DE2A000EDD22A5EF08F0120022C03AF080
:1011B00023C03BF024C03CF025C03DF026C03EF0EB
:1011C00027C03FF028C040F029C041F041BEEBEFFE
:1011D00008F0EEEF08F0010EEFEF08F0000E386EA9
:1011E000396A38503910D8B4F8EF08F0FAEF08F03F
:1011F0000AEF09F0411E401E3F1E3E1E3D1E3C1ED2
:101200003B1E3A6C000E3B223C223D223E223F22F6
:10121000402241220001EFBF10EF09F012EF09F068
:1012200013EF09F05292EFBF20EF09F0EF5106E102
:10123000EE05D8B01EEF09F020EF09F026EF09F017
:10124000000E356E010E346E2AEF09F0EEC034F058
:10125000EFC035F0ECC036F0EDC037F03850391043
:10126000D8A435EF09F037EF09F03EEF09F052A4AA
:101270003CEF09F03EEF09F041EF09F03606D8A047
:101280003706000E436E1F0E426E000E01011F6FE7
:10129000C6EF09F04206D8A04306000E4224D96EDC
:1012A000010E4320DA6E3AC005F03BC006F03CC0A8
:1012B00007F03DC008F03EC009F03FC00AF040C052
:1012C0000BF041C00CF00A0E0D6E000E0E6E000EFB
:1012D0000F6E000E106E000E116E000E126E000EDC
:1012E000136E000E146E84EC0DF005C02AF006C0DB
:1012F0002BF007C02CF008C02DF009C02EF00AC05A
:101300002FF00BC030F00CC031F02AC017F02CC009
:1013100018F0D4EC13F01750300FDF6E3406D8A05D
:1013200035063606D8A037063AC005F03BC006F0B1
:101330003CC007F03DC008F03EC009F03FC00AF0D5
:1013400040C00BF041C00CF00A0E0D6E000E0E6E88
:10135000000E0F6E000E106E000E116E000E126E5B
:10136000000E136E000E146EC0EC0CF005C03AF0C7
:1013700006C03BF007C03CF008C03DF009C03EF09D
:101380000AC03FF00BC040F00CC041F043BED1EFAB
:1013900009F0435008E14204D8A0D1EF09F0D3EF9F
:1013A00009F003EF0AF03A503B103C103D103E109C
:1013B0003F1040104110D8A4E0EF09F0E2EF09F02F
:1013C0004AEF09F035BEEFEF09F0355006E134047D
:1013D000D8B0EDEF09F0EFEF09F04AEF09F037BEB2
:1013E000FAEF09F0375008E13604D8A0FAEF09F017
:1013F000FCEF09F003EF0AF052B201EF0AF003EF3D
:101400000AF04AEF09F038503910D8A40AEF0AF070
:101410000CEF0AF013EF0AF052A411EF0AF013EFE9
:101420000AF031EF0AF04206D8A0430638503910CE
:10143000D8A41DEF0AF01FEF0AF025EF0AF0000E06
:10144000336E2B0E326E29EF0AF0000E336E2D0E26
:10145000326E000E4224D96E010E4320DA6E32C085
:10146000DFFF20C015F021C016F0000E4224176ED9
:10147000010E4320186E36C019F037C01AF0BFECC9
:1014800011F015C020F016C021F01200030E051453
:10149000106E000E0614116E10501110D8A453EFE8
:1014A0000AF055EF0AF068EF0AF0020E0718D8A408
:1014B0005CEF0AF05EEF0AF068EF0AF00850800A6D
:1014C000620FD8B066EF0AF068EF0AF000EF0BF099
:1014D000030E0514106E000E0614116E105011103C
:1014E000D8B475EF0AF077EF0AF08AEF0AF0020E2F
:1014F0000718D8A47EEF0AF080EF0AF08AEF0AF00E
:101500000850800A630FD8B088EF0AF08AEF0AF01B
:1015100000EF0BF00704D8B490EF0AF092EF0AF056
:10152000C8EF0AF0030E0718D8B499EF0AF09BEF42
:101530000AF0C8EF0AF0050E0718D8B4A2EF0AF0B7
:10154000A4EF0AF0C8EF0AF0070E0718D8B4ABEF03
:101550000AF0ADEF0AF0C8EF0AF0080E0718D8B489
:10156000B4EF0AF0B6EF0AF0C8EF0AF00A0E071857
:10157000D8B4BDEF0AF0BFEF0AF0C8EF0AF00C0EC6
:101580000718D8A4C6EF0AF0C8EF0AF0D2EF0AF0A5
:101590000850800A600FD8B0D0EF0AF0D2EF0AF0FE
:1015A00000EF0BF0040E0718D8B4D9EF0AF0DBEF08
:1015B0000AF0F6EF0AF0060E0718D8B4E2EF0AF0C8
:1015C000E4EF0AF0F6EF0AF0090E0718D8B4EBEFD3
:1015D0000AF0EDEF0AF0F6EF0AF00B0E0718D8A4A8
:1015E000F4EF0AF0F6EF0AF016EF0BF00850800A5D
:1015F000610FD8A0FEEF0AF000EF0BF016EF0BF032
:101600000728076E010E086E0750800A730FD8A0D6
:101610000CEF0BF00EEF0BF016EF0BF0010E0524A4
:10162000056E000E0620066E010E076E20EE05F018
:1016300000EE05F00A0EDBCFEBFFE806FCE212003D
:10164000000E1A6E000E196E000E136E000E126E52
:101650002CEF0BF00C4A0D2A010E186E0CC0F6FF91
:101660000DC0F7FF000EF86E0800F550200AD8B440
:101670003CEF0BF03EEF0BF05DEF0BF0F70E0E6E54
:10168000FF0E0F6E0CC0F6FF0DC0F7FF000EF86ED8
:101690000800F550106E116A0E5010260F501122DE
:1016A000115009E1050E105CD8A059EF0BF05BEF6B
:1016B0000BF05DEF0BF0000E186E18C014F0156AF9
:1016C00014501510D8A467EF0BF069EF0BF02AEF58
:1016D0000BF073EF0BF0000E136E010E126E0C4A3E
:1016E0000D2AACEF0BF00CC0F6FF0DC0F7FF000E9B
:1016F000F86E0800F5500E6E0F6A0F50000AD8B44D
:1017000084EF0BF0ACEF0BF00E502B0AD8B46FEF58
:101710000BF0060AD8B46BEF0BF0ACEF0BF019C06E
:1017200005F01AC006F0000E086E0A0E076E87EC70
:1017300014F00CC0F6FF0DC0F7FF000EF86E0800A5
:10174000F550055E000E065A300E0524196E000E87
:1017500006201A6E6FEF0BF0D00E0E6EFF0E0F6E9E
:101760000CC0F6FF0DC0F7FF000EF86E0800F55034
:10177000106E116A0E5010260F50112211500AE1FE
:101780000A0E105CD8A0C7EF0BF0CAEF0BF0010EE9
:10179000CBEF0BF0000E166E176A16501710D8A478
:1017A000D4EF0BF0D6EF0BF08FEF0BF012501310BD
:1017B000D8A4DDEF0BF0DFEF0BF0EDEF0BF019C06D
:1017C0000EF01AC00FF00E1E0F1E0E4A0F2A0EC08A
:1017D0000CF00FC00DF0F1EF0BF019C00CF01AC0B7
:1017E0000DF012000001F005D8A4F9EF0BF0FBEFAB
:1017F0000BF0B6EF0CF08B298B6F020E6CEC13F034
:101800008F0E0001726F000E736F010E746F0E0E5B
:10181000756F8951766F776B76BF77078A51786FCE
:10182000796B78BF79078B517A6F7B6B7ABF7B07B7
:10183000F5EC12F08F0E086E000E096E2BEC14F012
:1018400000018B51800A440FD8A029EF0CF02BEF38
:101850000CF0B4EF0CF080A630EF0CF034EF0CF08D
:10186000506A502A35EF0CF0506A504650465046A8
:1018700080505018F70B5018806E000E00018B6FCF
:101880008A298A6F8A51800A440FD8A04AEF0CF047
:101890004CEF0CF0B4EF0CF0000E8A6F8929896FC1
:1018A00020EE84F000EE05F00A0EDBCFEBFFE80639
:1018B000FCE2BEEC0FF020EE84F00A0EEBCFDBFF73
:1018C000E806FCE200018951800A680FD8A06BEF9E
:1018D0000CF06DEF0CF0B4EF0CF0000E896F87295F
:1018E000876F20EE84F000EE05F00A0EDBCFEBFFF1
:1018F000E806FCE246EC0AF020EE84F00A0EEBCF9C
:10190000DBFFE806FCE2010E6CEC13F0B70E000101
:10191000726F000E736F100E746F0E0E756F84C0B1
:1019200076F085C077F08651786F796B78BF79074C
:1019300087517A6F7B6B7ABF7B07F5EC12F0B70E9D
:10194000086E000E096E2BEC14F000018829886FD8
:101950008851800A780FD8A0B0EF0CF0B2EF0CF0ED
:10196000B4EF0CF0010E886F000EF06F20EE84F0E3
:1019700000EE84F00A0EDBCFEBFFE806FCE212007B
:10198000000E166E14BEC9EF0CF0C7EF0CF0DBEFC3
:101990000CF0141E131E121E111E101E0F1E0E1E02
:1019A0000D6C000E0E220F22102211221222132281
:1019B0001422010E166E0CBEE2EF0CF0E0EF0CF0FC
:1019C000F4EF0CF00C1E0B1E0A1E091E081E071E4B
:1019D000061E056C000E06220722082209220A2292
:1019E0000B220C22010E161A20EE17F0070EDE6AEB
:1019F000E806FDE20D500E100F101010111012101D
:101A000013101410D8B407EF0DF009EF0DF05BEFD1
:101A10000DF0010E156E17EF0DF0D8900D360E3645
:101A20000F3610361136123613361436152A14AE08
:101A30001CEF0DF01EEF0DF00DEF0DF0D8901736E6
:101A4000183619361A361B361C361D361E360D5002
:101A5000055C0E5006580F5007581050085811508A
:101A6000095812500A5813500B5814500C58D8A04B
:101A70003CEF0DF03EEF0DF04FEF0DF00D50055E19
:101A80000E50065A0F50075A1050085A1150095A52
:101A900012500A5A13500B5A14500C5A1780D890EF
:101AA000143213321232113210320F320E320D3222
:101AB000152E1EEF0DF01650D8B461EF0DF063EF48
:101AC0000DF073EF0DF01E1E1D1E1C1E1B1E1A1E98
:101AD000191E181E176C000E182219221A221B221A
:101AE0001C221D221E2217C005F018C006F019C0C6
:101AF00007F01AC008F01BC009F01CC00AF01DC096
:101B00000BF01EC00CF01200000E166E0CBE8DEF16
:101B10000DF08BEF0DF09FEF0DF00C1E0B1E0A1E4B
:101B2000091E081E071E061E056C000E062207224F
:101B3000082209220A220B220C22010E166E14BE64
:101B4000A6EF0DF0A4EF0DF0B6EF0DF0141E131E6E
:101B5000121E111E101E0F1E0E1E0D6C000E0E22E8
:101B60000F22102211221222132214220D500E10C5
:101B70000F1010101110121013101410D8B4C3EF5E
:101B80000DF0C5EF0DF00DEF0EF0010E156ED3EF59
:101B90000DF0D8900D360E360F361036113612363F
:101BA00013361436152A14AED8EF0DF0DAEF0DF017
:101BB000C9EF0DF00D50055C0E5006580F50075838
:101BC000105008581150095812500A5813500B5809
:101BD00014500C58D8A0EFEF0DF0F1EF0DF001EF1D
:101BE0000EF00D50055E0E50065A0F50075A105059
:101BF000085A1150095A12500A5A13500B5A1450CD
:101C00000C5AD890143213321232113210320F3271
:101C10000E320D32152EDAEF0DF01650D8B413EF48
:101C20000EF015EF0EF025EF0EF00C1E0B1E0A1E27
:101C3000091E081E071E061E056C000E062207223E
:101C4000082209220A220B220C2205C005F006C038
:101C500006F007C007F008C008F009C009F00AC084
:101C60000AF00BC00BF00CC00CF01200076E07C09E
:101C700005F0066A05BE060605A041EF0EF043EF2B
:101C80000EF046EF0EF07F8047EF0EF07F9007C01A
:101C900005F0066A05BE060605A251EF0EF053EFE9
:101CA0000EF056EF0EF07F8257EF0EF07F9207C0D6
:101CB00005F0066A05BE060605A461EF0EF063EFA7
:101CC0000EF066EF0EF0798467EF0EF0799407C09E
:101CD00005F0066A05BE060605A671EF0EF073EF65
:101CE0000EF076EF0EF07E8C77EF0EF07E9C07C044
:101CF00005F0066A05BE060605A881EF0EF083EF23
:101D00000EF086EF0EF0798887EF0EF0799807C015
:101D100005F0066A05BE060605AA91EF0EF093EFE0
:101D20000EF096EF0EF0798A97EF0EF0799A07C0D1
:101D300005F0066A05BE060605ACA1EF0EF0A3EF9E
:101D40000EF0A6EF0EF07E80A7EF0EF07E9007C09B
:101D500005F0066A05BE060605AEB1EF0EF0B3EF5C
:101D60000EF0B6EF0EF07A80B7EF0EF07A9007C063
:101D700005F0066A05BE060606A0C1EF0EF0C3EF29
:101D80000EF0C6EF0EF07A82C7EF0EF07A921200D4
:101D9000070E0001E06FE50EDF6F0B0EE16F090E1D
:101DA000E26F020EE36F070EE46F1E0EE56F000E8A
:101DB000E66F070EE76F000EE86F000EE96FCBECE1
:101DC00014F09AEC14F0BDEC14F020EEDFF000EE0D
:101DD00005F00A0EDBCFEBFFE806FCE2B3EC13F0F4
:101DE00020EEDFF000EE06F00A0EDBCFEBFFE80698
:101DF000FCE247EC13F0F5EC14F074EC14F020EE78
:101E0000DFF000EE84F00A0EDBCFEBFFE806FCE229
:101E100048EC0FF020EEDFF000EE1BF00A0EDBCFF7
:101E2000EBFFE806FCE220EC12F020EEDFF00A0EF9
:101E3000EBCFDBFFE806FCE220EEDFF000EE84F003
:101E40000A0EDBCFEBFFE806FCE2F2EC0BF020EE33
:101E5000DFF00A0EEBCFDBFFE806FCE220EEDFF05E
:101E600000EE10F00A0EDBCFEBFFE806FCE25DECC3
:101E700011F020EEDFF00A0EEBCFDBFFE806FCE20C
:101E80000001E45136EC0EF00AEF0FF02CEF00F0F9
:101E9000839C839482968294859685927B9C7B9486
:101EA0007A967A947D967D92040E516EA80E506EAD
:101EB0000C0EE82EFED7502EFCD7512EFAD7020E6C
:101EC00064EC12F0F00EE82EFED7000E066E280E1F
:101ED00045EC14F0F00EE82EFED7000E066E280E2C
:101EE00045EC14F0F00EE82EFED7000E066E080E3C
:101EF00045EC14F0F00EE82EFED7000E066E010E33
:101F000045EC14F02A0E506E8E0EE82EFED7502EA1
:101F1000FCD7000E066E060E45EC14F0A00E00D0A5
:101F2000E82EFDD7000E066E0C0E45EC14F0A00E48
:101F300000D0E82EFDD7010E6CEC13F08F0E0001DF
:101F4000726F000E736F100E746F0E0E756F84C07B
:101F500076F085C077F08651786F796B78BF790716
:101F600087517A6F7B6B7ABF7B07F5EC12F08F0E8F
:101F7000086E000E096E2BEC14F01200030E071809
:101F8000D8A4C5EF0FF0C7EF0FF0F3EF0FF008C0C4
:101F900010F0116A10BE1106070E1026000E112255
:101FA00011BEDCEF0FF0115009E1200E105CD8A03B
:101FB000DCEF0FF0DEEF0FF0F3EF0FF0070E091874
:101FC000D8A4E5EF0FF0E7EF0FF0F3EF0FF00A04FE
:101FD000D8A4EDEF0FF0EFEF0FF0F3EF0FF00A28BA
:101FE0000A6E27EF10F00A0E0718D8A4FAEF0FF0C8
:101FF000FCEF0FF027EF10F008C010F0116A10BED0
:102000001106070E1026000E112211BE11EF10F05E
:10201000115009E1200E105CD8A011EF10F013EF61
:1020200010F027EF10F0070E0918D8A41AEF10F0DF
:102030001CEF10F027EF10F0020E0A18D8A423EFBF
:1020400010F025EF10F027EF10F00A040A6E20EED2
:1020500005F000EE05F00A0EDBCFEBFFE806FCE230
:10206000120015501224056EE86AD8B0E82A15BE91
:10207000E80612BEE806066E000E086E020E076E37
:10208000FBEC10F00550186E16501324056EE86A2C
:10209000D8B0E82A16BEE80613BEE806066E000EA3
:1020A000086E020E076EFBEC10F00550196E17500B
:1020B0001424056EE86AD8B0E82A17BEE80614BEF4
:1020C000E806066E000E086E020E076EFBEC10F0BE
:1020D00005501A6E1A50145C146E14BE74EF10F092
:1020E00072EF10F079EF10F014503C0F146E1304DF
:1020F000136E1950135C136E13BE83EF10F081EF53
:1021000010F088EF10F013503C0F136E1204126E93
:102110001850125C0C0F126E20EE0DF000EE0DF058
:102120000A0EDBCFEBFFE806FCE2120007500810B6
:10213000D8B49DEF10F09FEF10F0A8EF10F007500B
:102140000810D8A4A6EF10F0A8EF10F0ADEF10F033
:102150000550F8EC14F0FAEF10F020EE04F0075000
:10216000D9260850DA22DE50DE10D8B4BAEF10F0CB
:10217000BCEF10F0D7EF10F020EE04F00750D92696
:102180000850DA2210EE02F00750E1260850E22251
:10219000DE50E65CE650800A0D6EDE50800A0D5877
:1021A000D8B0D5EF10F0D7EF10F0FAEF10F020EE26
:1021B00002F00750D9260850DA22DECF09F0DDCF31
:1021C0000AF007C0D9FF08C0DAFFDECF0BF0DDCF81
:1021D0000CF009500B24D96E0A500C20DA6E05C0A1
:1021E000DFFF20EE02F00750D9260850DA22DE2A5F
:1021F000000EDD221200000E0A6E08BE04EF11F080
:1022000002EF11F00AEF11F0076C081ED8B0082A8F
:10221000010E0A6E06BE11EF11F00FEF11F017EF6D
:1022200011F0056C061ED8B0062A010E0A1A000E1F
:102230000C6E000E0B6E07500810D8B422EF11F090
:1022400024EF11F04CEF11F0010E096E2CEF11F09C
:10225000D89007360836092A08AE31EF11F033EF6F
:1022600011F028EF11F0D8900B360C360750055CB2
:1022700008500658D8A03FEF11F041EF11F046EF9B
:1022800011F00750055E0850065A0B80D8900832AE
:102290000732092E33EF11F00A50D8B452EF11F083
:1022A00054EF11F058EF11F00B6C0C1ED8B00C2A43
:1022B0000BC005F00CC006F012001504D8A463EFA3
:1022C00011F065EF11F07AEF11F01650D8A46BEF12
:1022D00011F06DEF11F07AEF11F01750D8A473EFF1
:1022E00011F075EF11F07AEF11F00E012B917C9E39
:1022F000B5EF11F0050E1518D8A481EF11F083EF9A
:1023000011F0B5EF11F01650D8A489EF11F08BEF52
:1023100011F0B5EF11F01750D8A491EF11F093EF31
:1023200011F0B5EF11F00E012B81D8EC14F01B6EFB
:10233000DD0E1B649EEF11F0A0EF11F0A3EF11F082
:102340007C8EB5EF11F020EE10F000EE05F00A0ED5
:10235000DBCFEBFFE806FCE2ADEC14F020EE10F072
:102360000A0EEBCFDBFFE806FCE220EE10F000EEF9
:1023700010F00A0EDBCFEBFFE806FCE2120052A0E1
:10238000C4EF11F0C6EF11F0D0EF11F017C00EF04E
:1023900018C00FF015C010F016C011F091EC13F03A
:1023A0001ABED5EF11F0D7EF11F0DDEF11F019C023
:1023B0001EF01AC01FF0E1EF11F0000E1F6E000EAC
:1023C0001E6E000E1D6E000E1C6EF3EF11F0000E5F
:1023D000066E200E056E15C007F016C008F096ECCC
:1023E00010F01C4A1D2A1E501C5C1D50800A1B6EDA
:1023F0001F50800A1B58D8A000EF12F002EF12F015
:10240000E7EF11F052B007EF12F009EF12F013EFFF
:1024100012F017C00EF018C00FF015C010F016C063
:1024200011F091EC13F017C005F018C006F010EC95
:1024300014F01E500524156E1F500620166E120053
:102440005504D8A426EF12F028EF12F03EEF12F058
:1024500020EE1BF000EE05F00A0EDBCFEBFFE806E6
:10246000FCE2ADEC14F020EE1BF00A0EEBCFDBFF2C
:10247000E806FCE2000E556E5AEF12F05404D8A4A0
:1024800044EF12F046EF12F05AEF12F020EE1BF07C
:1024900000EE0DF00A0EDBCFEBFFE806FCE231ECBC
:1024A00010F020EE1BF00A0EEBCFDBFFE806FCE29B
:1024B000000E546E20EE1BF000EE1BF00A0EDBCF78
:1024C000EBFFE806FCE21200056E05A06AEF12F0D1
:1024D0006CEF12F06FEF12F07A8670EF12F07A96CE
:1024E00005A275EF12F077EF12F07AEF12F07A840E
:1024F0007BEF12F07A9405A480EF12F082EF12F0D5
:1025000085EF12F07D8686EF12F07D9605A68BEFA3
:1025100012F08DEF12F090EF12F07D8291EF12F039
:102520007D92EEEC14F01A0EE82EFED700D01200C9
:102530006EC04EF06FC04FF0000E0001EB6F000E4A
:10254000EA6FB6EF12F06CC044F06DC045F04E0E6D
:10255000466E000E476E70C048F071C049F010EC36
:1025600007F044500001EA274550EB234EC0F6FF28
:102570004FC0F7FF000EF86E0800F5500009D8A410
:10258000C4EF12F0C6EF12F0A3EF12F0EAC06CF045
:10259000EBC06DF012000E0135A1D1EF12F0D3EFB8
:1025A00012F0F3EF12F07CAED8EF12F0DCEF12F085
:1025B000016A012ADDEF12F0016A013201327C501A
:1025C00001187F0B01187C6E7CBEE9EF12F0EBEF77
:1025D00012F0EFEF12F0010E556EF1EF12F0010E56
:1025E000546E0E01359156921100760E00017C6FEB
:1025F000000E7D6F72C07EF073C07FF0000E816FA1
:10260000000E806F000E836F000E826F7E0E6C6F67
:10261000000E6D6F74C06EF075C06FF07C0E706F41
:10262000000E716F98EC12F0000180517225D96E86
:1026300081517321DA6E000EDF6E1200010E0B6EF7
:10264000200E05180610D8B428EF13F02AEF13F067
:1026500043EF13F0F70E076EFF0E086E05C009F08A
:1026600006C00AF00750092608500A220A5009E15C
:10267000050E095CD8A03FEF13F041EF13F043EFD4
:1026800013F0000E0B6E0BC005F0066A12000B5023
:10269000800A7F0FD8A04FEF13F051EF13F05BEFDC
:1026A00013F00B50800A7B0FD8A059EF13F05BEFAB
:1026B00013F069EF13F0D8EC14F0116EDD0E116415
:1026C00064EF13F066EF13F069EF13F07C8E6AEF9E
:1026D00013F07C9E849E1200086E0804D8A473EF49
:1026E00013F075EF13F07AEF13F0000E066E800E04
:1026F00045EC14F0A00E00D0E82EFDD7020E08180D
:10270000D8A485EF13F087EF13F08CEF13F0000ED1
:10271000066EC00E45EC14F0A00E00D0E82EFDD7DA
:102720001200000E146E000E136EA2EF13F012C012
:1027300005F0066A10C007F011C008F096EC10F022
:10274000134A142A13500E24D96E14500F20DA6E37
:10275000DF50126E1250D8A4B0EF13F0B2EF13F0A6
:1027600097EF13F012000A50800A7F0FD8A0BBEF3A
:1027700013F0BDEF13F0C7EF13F00A50800A7B0F80
:10278000D8A0C5EF13F0C7EF13F0CBEF13F00E0195
:102790002B81CDEF13F00E012B91298B21811F9BF3
:1027A000F28AF28CF28E120018BEE1EF13F018508C
:1027B00006E11704D8B0DFEF13F0E1EF13F0EFEF0D
:1027C00013F017C019F018C01AF0191E1A1E194A72
:1027D0001A2A19C017F01AC018F0F3EF13F017C037
:1027E00017F018C018F01200D00E076EFF0E086E1A
:1027F00005C009F006C00AF00750092608500A2251
:102800000A500AE10A0E095CD8A009EF14F00CEF97
:1028100014F0010E0DEF14F0000E056E066A1200A2
:1028200005C007F006C008F018EF14F0054A062AA4
:1028300005C0D9FF06C0DAFFDF50D8A422EF14F09C
:1028400024EF14F016EF14F00750055C056E0850E5
:102850000658066E120038EF14F0010E066E08C01E
:10286000D9FF09C0DAFFDF5045EC14F0084A092A05
:1028700008C0D9FF09C0DAFFDF50D8A442EF14F036
:1028800044EF14F02DEF14F01200076E0650D8B488
:102890004CEF14F04EEF14F051EF14F07B8C52EF2C
:1028A00014F07B9C07380F0B64EC12F007500F0BF1
:1028B00064EC12F0A00E00D0E82EFDD7120001EE5D
:1028C00000F0200EEE6AE806FDE100EEEAF0070EE9
:1028D000EE6AE806FDE1556A546A536A526A5690F8
:1028E00056920001C8EF0EF07F907F9279947E9C03
:1028F0007998799A7E907A907A928790879281944B
:10290000869C8198819A86908290829212000550CE
:102910000702F3CF09F0F4CF0AF005500802F35094
:102920000A2606500702F3500A2609C005F00AC01D
:1029300006F01200868E0E01D251F80B0309D26FF9
:10294000D351F80B0509D36FD083D089D183D181BE
:10295000E4EC14F00E01D08F12000AC00DF00BC091
:102960000EF00CC00FF020EE05F000EE05F00A0EA0
:10297000DBCFEBFFE806FCE21200D6501F0B40094C
:10298000D66ED688F00ED616D588EE0ED46EA30E6F
:10299000D36ED58E1200868E0E01B48F0F0158991A
:1029A000FC0E58172F0E5F6F60946088608E1200C7
:1029B000608060B0DEEF14F0E0EF14F0D9EF14F0B7
:1029C00064CF05F005501200F30E0E01C617C69134
:1029D000C751E00B1B09C76FC68F12007B840A0E1C
:1029E000E82EFED700D07B941200808688961200D5
:0229F0001200D3
:020000040020DA
:10000000FF0FFF0FFF0FFF0FFF0FFF0FFF0FFF0F80
:020000040030CA
:0C000000AAFFFFFF9FFFFFFFFFFFFFFFB5
:00000001FF
