:040000002CEF00F0F1
:060008005682E3EF12F046
:100018005680D8CF02F0E8CF03F0E0CF04F00E010D
:1000280033AB19EF00F01BEF00F024EF00F0EE0EF9
:10003800D46EA30ED36E010E0001F26F0E01339B36
:1000480004C0E0FF03C0E8FF02C0D8FF56901000CC
:0400580077EF14F03A
:100E000000253032643A253032643A2530326400AD
:100E1000253034642D253032642D253032640000B5
:100E200046C0D9FF47C0DAFFDECFF6FFDDCFF7FFC0
:100E3000000EF86E0800F550250AD8A422EF07F03E
:100E400024EF07F0B8EF08F046C0D9FF47C0DAFF3B
:100E5000DE2A000EDD22000E0001EF6F000EEE6FA5
:100E6000EEC052F0EFC053F0F069F169000E696F07
:100E7000000E686F84EF07F0528046C0D9FF47C06C
:100E8000DAFFDE2A000EDD2284EF07F052823DEF0A
:100E900007F052843DEF07F052863DEF07F052888D
:100EA0003DEF07F0000E696F010E686F84EF07F0E9
:100EB00046C0D9FF47C0DAFFDECFF6FFDDCFF7FF30
:100EC000000EF86E0800F5504A6E4B6A4B50000A4F
:100ED000D8B46DEF07F052EF07F04A50200AD8B4AB
:100EE0004CEF07F0030AD8B44FEF07F0080AD8B464
:100EF00049EF07F0060AD8B43CEF07F01D0AD8B452
:100F000046EF07F052EF07F068516911D8B48BEF44
:100F100007F08DEF07F058EF07F052A092EF07F0BF
:100F200094EF07F095EF07F0529246C0D9FF47C003
:100F3000DAFFDECFF6FFDDCFF7FF000EF86E080018
:100F4000F5502A0AD8A4A7EF07F0A9EF07F0D2EFCF
:100F500007F046C0D9FF47C0DAFFDE2A000EDD22C7
:100F600048C0D9FF49C0DAFFDFCF4AF0020EDE26C3
:100F7000DFCF4BF0000EDD224AC0D9FF4BC0DAFFB5
:100F8000DECFEEF0DDCFEFF0EFBFCBEF07F0C9EF34
:100F900007F018EF08F05280EE6DEF1FD8B0EF2B7E
:100FA00018EF08F046C0D9FF47C0DAFFDECF0CF0DB
:100FB000DDCF0DF020EC0BF00CC0EEF00DC0EFF02B
:100FC000E9EF07F046C0D9FF47C0DAFFDE2A000E7E
:100FD000DD22D00E4A6EFF0E4B6E46C0D9FF47C0D1
:100FE000DAFFDECFF6FFDDCFF7FF000EF86E080068
:100FF000F5504C6E4D6A4A504C264B504D224D5088
:101000000AE10A0E4C5CD8A008EF08F00BEF08F0DC
:10101000010E0CEF08F0000E00016A6F6B6B6A5155
:101020006B11D8A416EF08F018EF08F0E2EF07F004
:1010300046C0D9FF47C0DAFFDECFF6FFDDCFF7FFAE
:10104000000EF86E0800F550640AD8B42AEF08F0D4
:101050002CEF08F040EF08F046C0D9FF47C0DAFF98
:10106000DECFF6FFDDCFF7FF000EF86E0800F5507B
:10107000690AD8A43EEF08F040EF08F080EF08F0CE
:1010800046C0D9FF47C0DAFFDE2A000EDD2248C085
:10109000D9FF49C0DAFFDFCF4AF0020EDE26DFCFEC
:1010A0004BF0000EDD224AC0D9FF4BC0DAFFDECF85
:1010B00060F0DDCF61F0000E61BFFF0E626F636F05
:1010C000646F656F666F676F44C020F045C021F0A4
:1010D00060C022F061C023F062C024F063C025F03C
:1010E00064C026F065C027F066C028F067C029F00C
:1010F000D6EC08F020C044F021C045F0D5EF08F050
:1011000046C0D9FF47C0DAFFDECFF6FFDDCFF7FFDD
:10111000000EF86E0800F550250AD8A492EF08F0EA
:1011200094EF08F0ABEF08F046C0D9FF47C0DAFFF4
:10113000DE2A000EDD22000E066E250E056E44C06E
:1011400007F045C008F0AEEC10F0000E456E010E41
:10115000446ED5EF08F046C0D9FF47C0DAFFDE2A5B
:10116000000EDD22000E456E000E446ED5EF08F035
:1011700046C0D9FF47C0DAFFDECFF6FFDDCFF7FF6D
:10118000000EF86E0800F550056E066A44C007F0C0
:1011900045C008F0AEEC10F046C0D9FF47C0DAFFFA
:1011A000DE2A000EDD22A5EF08F0120022C03AF080
:1011B00023C03BF024C03CF025C03DF026C03EF0EB
:1011C00027C03FF028C040F029C041F041BEEBEFFE
:1011D00008F0EEEF08F0010EEFEF08F0000E386EA9
:1011E000396A38503910D8B4F8EF08F0FAEF08F03F
:1011F0000AEF09F0411E401E3F1E3E1E3D1E3C1ED2
:101200003B1E3A6C000E3B223C223D223E223F22F6
:10121000402241220001F1BF10EF09F012EF09F066
:1012200013EF09F05292F1BF20EF09F0F15106E1FE
:10123000F005D8B01EEF09F020EF09F026EF09F015
:10124000000E356E010E346E2AEF09F0F0C034F056
:10125000F1C035F0EEC036F0EFC037F0385039103D
:10126000D8A435EF09F037EF09F03EEF09F052A4AA
:101270003CEF09F03EEF09F041EF09F03606D8A047
:101280003706000E436E1F0E426E000E01011F6FE7
:10129000C6EF09F04206D8A04306000E4224D96EDC
:1012A000010E4320DA6E3AC005F03BC006F03CC0A8
:1012B00007F03DC008F03EC009F03FC00AF040C052
:1012C0000BF041C00CF00A0E0D6E000E0E6E000EFB
:1012D0000F6E000E106E000E116E000E126E000EDC
:1012E000136E000E146E86EC0DF005C02AF006C0D9
:1012F0002BF007C02CF008C02DF009C02EF00AC05A
:101300002FF00BC030F00CC031F02AC017F02CC009
:1013100018F0ECEC13F01750300FDF6E3406D8A045
:1013200035063606D8A037063AC005F03BC006F0B1
:101330003CC007F03DC008F03EC009F03FC00AF0D5
:1013400040C00BF041C00CF00A0E0D6E000E0E6E88
:10135000000E0F6E000E106E000E116E000E126E5B
:10136000000E136E000E146EC2EC0CF005C03AF0C5
:1013700006C03BF007C03CF008C03DF009C03EF09D
:101380000AC03FF00BC040F00CC041F043BED1EFAB
:1013900009F0435008E14204D8A0D1EF09F0D3EF9F
:1013A00009F003EF0AF03A503B103C103D103E109C
:1013B0003F1040104110D8A4E0EF09F0E2EF09F02F
:1013C0004AEF09F035BEEFEF09F0355006E134047D
:1013D000D8B0EDEF09F0EFEF09F04AEF09F037BEB2
:1013E000FAEF09F0375008E13604D8A0FAEF09F017
:1013F000FCEF09F003EF0AF052B201EF0AF003EF3D
:101400000AF04AEF09F038503910D8A40AEF0AF070
:101410000CEF0AF013EF0AF052A411EF0AF013EFE9
:101420000AF031EF0AF04206D8A0430638503910CE
:10143000D8A41DEF0AF01FEF0AF025EF0AF0000E06
:10144000336E2B0E326E29EF0AF0000E336E2D0E26
:10145000326E000E4224D96E010E4320DA6E32C085
:10146000DFFF20C015F021C016F0000E4224176ED9
:10147000010E4320186E36C019F037C01AF0D7ECB1
:1014800011F015C020F016C021F01200030E051453
:10149000116E000E0614126E11501210D8A453EFE4
:1014A0000AF055EF0AF068EF0AF0020E0718D8A408
:1014B0005CEF0AF05EEF0AF068EF0AF00850800A6D
:1014C000620FD8B066EF0AF068EF0AF000EF0BF099
:1014D000030E0514116E000E0614126E1150121038
:1014E000D8B475EF0AF077EF0AF08AEF0AF0020E2F
:1014F0000718D8A47EEF0AF080EF0AF08AEF0AF00E
:101500000850800A630FD8B088EF0AF08AEF0AF01B
:1015100000EF0BF00704D8B490EF0AF092EF0AF056
:10152000C8EF0AF0030E0718D8B499EF0AF09BEF42
:101530000AF0C8EF0AF0050E0718D8B4A2EF0AF0B7
:10154000A4EF0AF0C8EF0AF0070E0718D8B4ABEF03
:101550000AF0ADEF0AF0C8EF0AF0080E0718D8B489
:10156000B4EF0AF0B6EF0AF0C8EF0AF00A0E071857
:10157000D8B4BDEF0AF0BFEF0AF0C8EF0AF00C0EC6
:101580000718D8A4C6EF0AF0C8EF0AF0D2EF0AF0A5
:101590000850800A600FD8B0D0EF0AF0D2EF0AF0FE
:1015A00000EF0BF0040E0718D8B4D9EF0AF0DBEF08
:1015B0000AF0F6EF0AF0060E0718D8B4E2EF0AF0C8
:1015C000E4EF0AF0F6EF0AF0090E0718D8B4EBEFD3
:1015D0000AF0EDEF0AF0F6EF0AF00B0E0718D8A4A8
:1015E000F4EF0AF0F6EF0AF016EF0BF00850800A5D
:1015F000610FD8A0FEEF0AF000EF0BF016EF0BF032
:101600000728076E010E086E0750800A730FD8A0D6
:101610000CEF0BF00EEF0BF016EF0BF0010E0524A4
:10162000056E000E0620066E010E076E20EE05F018
:1016300000EE05F00B0EDBCFEBFFE806FCE212003C
:10164000000E1A6E000E196E000E136E000E126E52
:101650002CEF0BF00C4A0D2A010E186E0CC0F6FF91
:101660000DC0F7FF000EF86E0800F550200AD8B440
:101670003CEF0BF03EEF0BF05DEF0BF0F70E0E6E54
:10168000FF0E0F6E0CC0F6FF0DC0F7FF000EF86ED8
:101690000800F550106E116A0E5010260F501122DE
:1016A000115009E1050E105CD8A059EF0BF05BEF6B
:1016B0000BF05DEF0BF0000E186E18C014F0156AF9
:1016C00014501510D8A467EF0BF069EF0BF02AEF58
:1016D0000BF073EF0BF0000E136E010E126E0C4A3E
:1016E0000D2AACEF0BF00CC0F6FF0DC0F7FF000E9B
:1016F000F86E0800F5500E6E0F6A0F50000AD8B44D
:1017000084EF0BF0ACEF0BF00E502B0AD8B46FEF58
:101710000BF0060AD8B46BEF0BF0ACEF0BF019C06E
:1017200005F01AC006F0000E086E0A0E076E9FEC58
:1017300014F00CC0F6FF0DC0F7FF000EF86E0800A5
:10174000F550055E000E065A300E0524196E000E87
:1017500006201A6E6FEF0BF0D00E0E6EFF0E0F6E9E
:101760000CC0F6FF0DC0F7FF000EF86E0800F55034
:10177000106E116A0E5010260F50112211500AE1FE
:101780000A0E105CD8A0C7EF0BF0CAEF0BF0010EE9
:10179000CBEF0BF0000E166E176A16501710D8A478
:1017A000D4EF0BF0D6EF0BF08FEF0BF012501310BD
:1017B000D8A4DDEF0BF0DFEF0BF0EDEF0BF019C06D
:1017C0000EF01AC00FF00E1E0F1E0E4A0F2A0EC08A
:1017D0000CF00FC00DF0F1EF0BF019C00CF01AC0B7
:1017E0000DF012000001F205D8A4F9EF0BF0FBEFA9
:1017F0000BF0B8EF0CF08C298C6F8C51800A440FE1
:10180000D8A005EF0CF007EF0CF092EF0CF080A6DB
:101810000CEF0CF010EF0CF0506A502A11EF0CF0A6
:10182000506A50465046504680505018F70B50189A
:10183000806E000E00018C6F8B298B6F8B51800A9C
:10184000440FD8A026EF0CF028EF0CF092EF0CF02C
:10185000000E8B6F8A298A6F20EE84F000EE05F06F
:101860000B0EDBCFEBFFE806FCE2CAEC0EF020EE3D
:1018700084F00B0EEBCFDBFFE806FCE200018A519F
:10188000800A680FD8A047EF0CF049EF0CF092EFF8
:101890000CF0000E8A6F8729876F20EE84F000EE2F
:1018A00005F00B0EDBCFEBFFE806FCE246EC0AF09E
:1018B00020EE84F00B0EEBCFDBFFE806FCE2010E1E
:1018C00084EC13F0900E0001726F000E736F100E17
:1018D000746F0E0E756F84C076F085C077F08651F8
:1018E000786F796B78BF790787517A6F7B6B7ABF96
:1018F0007B070DEC13F0900E086E000E096E43ECA2
:1019000014F000018829886F8851800A780FD8A0C8
:101910008CEF0CF08EEF0CF092EF0CF0010E886F54
:1019200092EF0CF0020E84EC13F0B80E0001726F0F
:10193000000E736F010E746F0E0E756F8A51766F05
:10194000776B76BF77078B51786F796B78BF7907A4
:101950008C517A6F7B6B7ABF7B070DEC13F0B80E5E
:10196000086E000E096E43EC14F0000E0001F26FD9
:1019700020EE84F000EE84F00B0EDBCFEBFFE806E8
:10198000FCE21200000E166E14BECBEF0CF0C9EF95
:101990000CF0DDEF0CF0141E131E121E111E101E93
:1019A0000F1E0E1E0D6C000E0E220F221022112291
:1019B000122213221422010E166E0CBEE4EF0CF05C
:1019C000E2EF0CF0F6EF0CF00C1E0B1E0A1E091EC7
:1019D000081E071E061E056C000E0622072208229E
:1019E00009220A220B220C22010E161A20EE17F0F1
:1019F000070EDE6AE806FDE20D500E100F10101003
:101A00001110121013101410D8B409EF0DF00BEFD1
:101A10000DF05DEF0DF0010E156E19EF0DF0D89081
:101A20000D360E360F361036113612361336143682
:101A3000152A14AE1EEF0DF020EF0DF00FEF0DF094
:101A4000D8901736183619361A361B361C361D36FE
:101A50001E360D50055C0E5006580F50075810509A
:101A600008581150095812500A5813500B58145066
:101A70000C58D8A03EEF0DF040EF0DF051EF0DF0F7
:101A80000D50055E0E50065A0F50075A1050085A56
:101A90001150095A12500A5A13500B5A14500C5A2A
:101AA0001780D890143213321232113210320F32A2
:101AB0000E320D32152E20EF0DF01650D8B463EF14
:101AC0000DF065EF0DF075EF0DF01E1E1D1E1C1EB6
:101AD0001B1E1A1E191E181E176C000E1822192222
:101AE0001A221B221C221D221E2217C005F018C01C
:101AF00006F019C007F01AC008F01BC009F01CC09E
:101B00000AF01DC00BF01EC00CF01200000E166E85
:101B10000CBE8FEF0DF08DEF0DF0A1EF0DF00C1E50
:101B20000B1E0A1E091E081E071E061E056C000E4F
:101B300006220722082209220A220B220C22010E69
:101B4000166E14BEA8EF0DF0A6EF0DF0B8EF0DF075
:101B5000141E131E121E111E101E0F1E0E1E0D6CC3
:101B6000000E0E220F221022112212221322142202
:101B70000D500E100F101010111012101310141021
:101B8000D8B4C5EF0DF0C7EF0DF00FEF0EF0010E5A
:101B9000156ED5EF0DF0D8900D360E360F36103687
:101BA0001136123613361436152A14AEDAEF0DF04C
:101BB000DCEF0DF0CBEF0DF00D50055C0E5006582C
:101BC0000F500758105008581150095812500A5811
:101BD00013500B5814500C58D8A0F1EF0DF0F3EF40
:101BE0000DF003EF0EF00D50055E0E50065A0F502B
:101BF000075A1050085A1150095A12500A5A1350D5
:101C00000B5A14500C5AD89014321332123211322B
:101C100010320F320E320D32152EDCEF0DF0165051
:101C2000D8B415EF0EF017EF0EF027EF0EF00C1EE4
:101C30000B1E0A1E091E081E071E061E056C000E3E
:101C400006220722082209220A220B220C2205C0A2
:101C500005F006C006F007C007F008C008F009C08C
:101C600009F00AC00AF00BC00BF00CC00CF0120017
:101C7000076E07C005F0066A05BE060605A043EF1D
:101C80000EF045EF0EF048EF0EF07F8049EF0EF0BA
:101C90007F9007C005F0066A05BE060605A253EF51
:101CA0000EF055EF0EF058EF0EF07F8259EF0EF068
:101CB0007F9207C005F0066A05BE060605A463EF1D
:101CC0000EF065EF0EF068EF0EF0798469EF0EF01C
:101CD000799407C005F0066A05BE060605A673EFEF
:101CE0000EF075EF0EF078EF0EF07E8C79EF0EF0BF
:101CF0007E9C07C005F0066A05BE060605A883EFB0
:101D00000EF085EF0EF088EF0EF0798889EF0EF077
:101D1000799807C005F0066A05BE060605AA93EF86
:101D20000EF095EF0EF098EF0EF0798A99EF0EF025
:101D3000799A07C005F0066A05BE060605ACA3EF52
:101D40000EF0A5EF0EF0A8EF0EF07E80A9EF0EF0DA
:101D50007E9007C005F0066A05BE060605AEB3EF25
:101D60000EF0B5EF0EF0B8EF0EF07A80B9EF0EF08E
:101D70007A9007C005F0066A05BE060606A0C3EF06
:101D80000EF0C5EF0EF0C8EF0EF07A82C9EF0EF03C
:101D90007A921200030E0718D8A4D1EF0EF0D3EFF9
:101DA0000EF009EF0FF008C011F0126A11BE120612
:101DB000070E1126000E122212BEE8EF0EF012508E
:101DC00009E1200E115CD8A0E8EF0EF0EAEF0EF06A
:101DD00009EF0FF0070E0918D8A4F1EF0EF0F3EF9A
:101DE0000EF009EF0FF00B04D8A4F9EF0EF0FBEFA3
:101DF0000EF009EF0FF00A50D8A401EF0FF003EF37
:101E00000FF009EF0FF00B280B6E010E0A6E47EF73
:101E10000FF00A0E0718D8A410EF0FF012EF0FF012
:101E200047EF0FF008C011F0126A11BE1206070E3C
:101E30001126000E122212BE27EF0FF0125009E1F8
:101E4000200E115CD8A027EF0FF029EF0FF047EF1D
:101E50000FF0070E0918D8A430EF0FF032EF0FF093
:101E600047EF0FF0020E0B18D8A439EF0FF03BEF3D
:101E70000FF047EF0FF00A04D8A441EF0FF043EF43
:101E80000FF047EF0FF00B040B6E000E0A6E20EE02
:101E900005F000EE05F00B0EDBCFEBFFE806FCE2F1
:101EA0001200070E0001E16FE50EE06F0A0EE26F0F
:101EB0001E0EE36F060EE46F010EE56F120EE66F65
:101EC000000EE76F000EE86F070EE96F000EEA6F75
:101ED000000EEB6FE3EC14F0B2EC14F0D5EC14F060
:101EE00020EEE0F000EE05F00B0EDBCFEBFFE80696
:101EF000FCE2CBEC13F020EEE0F000EE06F00B0E6F
:101F0000DBCFEBFFE806FCE25FEC13F00DEC15F025
:101F10008CEC14F020EEE0F000EE84F00B0EDBCF42
:101F2000EBFFE806FCE2D3EC0FF020EEE0F000EE71
:101F30001CF00B0EDBCFEBFFE806FCE238EC12F0F6
:101F400020EEE0F00B0EEBCFDBFFE806FCE220EE2C
:101F5000E0F000EE84F00B0EDBCFEBFFE806FCE2D6
:101F6000F2EC0BF020EEE0F00B0EEBCFDBFFE8061F
:101F7000FCE220EEE0F000EE11F00B0EDBCFEBFF09
:101F8000E806FCE275EC11F020EEE0F00B0EEBCF72
:101F9000DBFFE806FCE20001E65138EC0EF095EFBD
:101FA0000FF02CEF00F0839C8394829682948596A8
:101FB00085927B9C7B947A967A947D967D92040E92
:101FC000516EA80E506E0C0EE82EFED7502EFCD788
:101FD000512EFAD7020E7CEC12F0F00EE82EFED74E
:101FE000000E066E280E5DEC14F0F00EE82EFED703
:101FF000000E066E280E5DEC14F0F00EE82EFED7F3
:10200000000E066E080E5DEC14F0F00EE82EFED702
:10201000000E066E010E5DEC14F02A0E506E8E0E50
:10202000E82EFED7502EFCD7000E066E060E5DEC95
:1020300014F0A00E00D0E82EFDD7000E066E0C0E98
:102040005DEC14F0A00E00D0E82EFDD7010E84EC5C
:1020500013F0900E0001726F000E736F100E746F0C
:102060000E0E756F84C076F085C077F08651786F5C
:10207000796B78BF790787517A6F7B6B7ABF7B0763
:102080000DEC13F0900E086E000E096E43EC14F088
:10209000120016501324056EE86AD8B0E82A16BE5E
:1020A000E80613BEE806066E000E086E020E076E06
:1020B00013EC11F00550196E17501424056EE86AE0
:1020C000D8B0E82A17BEE80614BEE806066E000E71
:1020D000086E020E076E13EC11F005501A6E1850C0
:1020E0001524056EE86AD8B0E82A18BEE80615BEC1
:1020F000E806066E000E086E020E076E13EC11F075
:1021000005501B6E1B50155C156E15BE8CEF10F044
:102110008AEF10F091EF10F015503C0F156E14047B
:10212000146E1A50145C146E14BE9BEF10F099EFED
:1021300010F0A0EF10F014503C0F146E1304136E47
:102140001950135C0C0F136E20EE0DF000EE0DF025
:102150000B0EDBCFEBFFE806FCE212000750081085
:10216000D8B4B5EF10F0B7EF10F0C0EF10F0075093
:102170000810D8A4BEEF10F0C0EF10F0C5EF10F0BB
:10218000055010EC15F012EF11F020EE04F007509E
:10219000D9260850DA22DE50DE10D8B4D2EF10F083
:1021A000D4EF10F0EFEF10F020EE04F00750D92636
:1021B0000850DA2210EE02F00750E1260850E22221
:1021C000DE50E65CE650800A0D6EDE50800A0D5847
:1021D000D8B0EDEF10F0EFEF10F012EF11F020EEAD
:1021E00002F00750D9260850DA22DECF09F0DDCF01
:1021F0000AF007C0D9FF08C0DAFFDECF0BF0DDCF51
:102200000CF009500B24D96E0A500C20DA6E05C070
:10221000DFFF20EE02F00750D9260850DA22DE2A2E
:10222000000EDD221200000E0A6E08BE1CEF11F037
:102230001AEF11F022EF11F0076C081ED8B0082A2F
:10224000010E0A6E06BE29EF11F027EF11F02FEFF5
:1022500011F0056C061ED8B0062A010E0A1A000EEF
:102260000C6E000E0B6E07500810D8B43AEF11F048
:102270003CEF11F064EF11F0010E096E44EF11F024
:10228000D89007360836092A08AE49EF11F04BEF0F
:1022900011F040EF11F0D8900B360C360750055C6A
:1022A00008500658D8A057EF11F059EF11F05EEF23
:1022B00011F00750055E0850065A0B80D89008327E
:1022C0000732092E4BEF11F00A50D8B46AEF11F023
:1022D0006CEF11F070EF11F00B6C0C1ED8B00C2AE3
:1022E0000BC005F00CC006F012001704D8A47BEF59
:1022F00011F07DEF11F092EF11F01850D8A483EF98
:1023000011F085EF11F092EF11F01950D8A48BEF76
:1023100011F08DEF11F092EF11F00E012B917C9ED8
:10232000CDEF11F0050E1718D8A499EF11F09BEF1F
:1023300011F0CDEF11F01850D8A4A1EF11F0A3EFD8
:1023400011F0CDEF11F01950D8A4A9EF11F0ABEFB7
:1023500011F0CDEF11F00E012B81F0EC14F01D6E99
:10236000DD0E1D64B6EF11F0B8EF11F0BBEF11F008
:102370007C8ECDEF11F020EE11F000EE05F00B0E8B
:10238000DBCFEBFFE806FCE2C5EC14F020EE11F029
:102390000B0EEBCFDBFFE806FCE220EE11F000EEC7
:1023A00011F00B0EDBCFEBFFE806FCE2120052A0AF
:1023B000DCEF11F0DEEF11F0E8EF11F017C00EF0D6
:1023C00018C00FF015C010F016C011F0A9EC13F0F2
:1023D0001ABEEDEF11F0EFEF11F0F5EF11F019C0AB
:1023E0001EF01AC01FF0F9EF11F0000E1F6E000E64
:1023F0001E6E000E1D6E000E1C6E0BEF12F0000E16
:10240000066E200E056E15C007F016C008F0AEEC83
:1024100010F01C4A1D2A1E501C5C1D50800A1B6EA9
:102420001F50800A1B58D8A018EF12F01AEF12F0B4
:10243000FFEF11F052B01FEF12F021EF12F02BEF6F
:1024400012F017C00EF018C00FF015C010F016C033
:1024500011F0A9EC13F017C005F018C006F028EC35
:1024600014F01E500524156E1F500620166E120023
:102470005504D8A43EEF12F040EF12F056EF12F0E0
:1024800020EE1CF000EE05F00B0EDBCFEBFFE806B4
:10249000FCE2C5EC14F020EE1CF00B0EEBCFDBFFE2
:1024A000E806FCE2000E556E72EF12F05404D8A458
:1024B0005CEF12F05EEF12F072EF12F020EE1CF003
:1024C00000EE0DF00B0EDBCFEBFFE806FCE249EC73
:1024D00010F020EE1CF00B0EEBCFDBFFE806FCE269
:1024E000000E546E20EE1CF000EE1CF00B0EDBCF45
:1024F000EBFFE806FCE21200056E05A082EF12F089
:1025000084EF12F087EF12F07A8688EF12F07A9655
:1025100005A28DEF12F08FEF12F092EF12F07A8495
:1025200093EF12F07A9405A498EF12F09AEF12F05C
:102530009DEF12F07D869EEF12F07D9605A6A3EF2B
:1025400012F0A5EF12F0A8EF12F07D82A9EF12F0C1
:102550007D9206EC15F01A0EE82EFED700D0120080
:102560006EC04EF06FC04FF0000E0001ED6F000E18
:10257000EC6FCEEF12F06CC044F06DC045F04E0E23
:10258000466E000E476E70C048F071C049F010EC06
:1025900007F044500001EC274550ED234EC0F6FFF4
:1025A0004FC0F7FF000EF86E0800F5500009D8A4E0
:1025B000DCEF12F0DEEF12F0BBEF12F0ECC06CF0CB
:1025C000EDC06DF012000E0135A1E9EF12F0EBEF56
:1025D00012F00BEF13F07CAEF0EF12F0F4EF12F00C
:1025E000016A012AF5EF12F0016A013201327C50D2
:1025F00001187F0B01187C6E7CBE01EF13F003EF16
:1026000013F007EF13F0010E556E09EF13F0010EF2
:10261000546E0E01359156921100760E00017C6FBA
:10262000000E7D6F72C07EF073C07FF0000E816F70
:10263000000E806F000E836F000E826F7E0E6C6F37
:10264000000E6D6F74C06EF075C06FF07C0E706F11
:10265000000E716FB0EC12F0000180517225D96E3E
:1026600081517321DA6E000EDF6E1200010E0B6EC7
:10267000200E05180610D8B440EF13F042EF13F007
:102680005BEF13F0F70E076EFF0E086E05C009F042
:1026900006C00AF00750092608500A220A5009E12C
:1026A000050E095CD8A057EF13F059EF13F05BEF5C
:1026B00013F0000E0B6E0BC005F0066A12000C50F2
:1026C000800A7F0FD8A067EF13F069EF13F073EF64
:1026D00013F00C50800A7B0FD8A071EF13F073EF4A
:1026E00013F081EF13F0F0EC14F0126EDD0E1264B3
:1026F0007CEF13F07EEF13F081EF13F07C8E82EF0E
:1027000013F07C9E849E1200086E0804D8A48BEF00
:1027100013F08DEF13F092EF13F0000E066E800EA3
:102720005DEC14F0A00E00D0E82EFDD7020E0818C4
:10273000D8A49DEF13F09FEF13F0A4EF13F0000E59
:10274000066EC00E5DEC14F0A00E00D0E82EFDD792
:102750001200000E146E000E136EBAEF13F012C0CA
:1027600005F0066A10C007F011C008F0AEEC10F0DA
:10277000134A142A13500E24D96E14500F20DA6E07
:10278000DF50126E1250D8A4C8EF13F0CAEF13F046
:10279000AFEF13F012000B50800A7F0FD8A0D3EFD9
:1027A00013F0D5EF13F0DFEF13F00B50800A7B0F1F
:1027B000D8A0DDEF13F0DFEF13F0E3EF13F00E011D
:1027C0002B81E5EF13F00E012B91298B21811F9BAB
:1027D000F28AF28CF28E120018BEF9EF13F0185044
:1027E00006E11704D8B0F7EF13F0F9EF13F007EF95
:1027F00014F017C019F018C01AF0191E1A1E194A41
:102800001A2A19C017F01AC018F00BEF14F017C0ED
:1028100017F018C018F01200D00E076EFF0E086EE9
:1028200005C009F006C00AF00750092608500A2220
:102830000A500AE10A0E095CD8A021EF14F024EF37
:1028400014F0010E25EF14F0000E056E066A12005A
:1028500005C007F006C008F030EF14F0054A062A5C
:1028600005C0D9FF06C0DAFFDF50D8A43AEF14F054
:102870003CEF14F02EEF14F00750055C056E085085
:102880000658066E120050EF14F0010E066E08C0D6
:10289000D9FF09C0DAFFDF505DEC14F0084A092ABD
:1028A00008C0D9FF09C0DAFFDF50D8A45AEF14F0EE
:1028B0005CEF14F045EF14F01200076E0650D8B428
:1028C00064EF14F066EF14F069EF14F07B8C6AEF9C
:1028D00014F07B9C07380F0B7CEC12F007500F0BA9
:1028E0007CEC12F0A00E00D0E82EFDD7120001EE15
:1028F00000F0200EEE6AE806FDE100EEECF0070EB7
:10290000EE6AE806FDE1556A546A536A526A5690C7
:102910005692000151EF0FF07F907F9279947E9C48
:102920007998799A7E907A907A928790879281941A
:10293000869C8198819A869082908292120005509E
:102940000702F3CF09F0F4CF0AF005500802F35064
:102950000A2606500702F3500A2609C005F00AC0ED
:1029600006F01200868E0E01D251F80B0309D26FC9
:10297000D351F80B0509D36FD083D089D183D1818E
:10298000FCEC14F00E01D08F12000BC00EF00CC046
:102990000FF00DC010F020EE05F000EE05F00B0E6C
:1029A000DBCFEBFFE806FCE21200D6501F0B40091C
:1029B000D66ED688F00ED616D588EE0ED46EA30E3F
:1029C000D36ED58E1200868E0E01B48F0F015899EA
:1029D000FC0E58172F0E5F6F60946088608E120097
:1029E000608060B0F6EF14F0F8EF14F0F1EF14F03F
:1029F00064CF05F005501200F30E0E01C617C69104
:102A0000C751E00B1B09C76FC68F12007B840A0EEB
:102A1000E82EFED700D07B941200808688961200A4
:022A20001200A2
:020000040020DA
:10000000FF0FFF0FFF0FFF0FFF0FFF0FFF0FFF0F80
:020000040030CA
:0C000000AAFFFFFF9FFFFFFFFFFFFFFFB5
:00000001FF
