:040000002AEF00F0F3
:060008002C82DFEF04F082
:100018002C80D8CF02F0E8CF03F0E0CF04F00E0137
:1000280033AB19EF00F01BEF00F022EF00F0EE0EFB
:10003800D46EA30ED36E010E296E339B04C0E0FF6D
:1000480003C0E8FF02C0D8FF2C901000D0EF05F0E5
:10005800030E0514106E000E0614116E10501110C8
:10006800D8A439EF00F03BEF00F04EEF00F0020E9D
:100078000718D8A442EF00F044EF00F04EEF00F06C
:100088000850800A620FD8B04CEF00F04EEF00F035
:10009800E6EF00F0030E0514106E000E0614116E44
:1000A80010501110D8B45BEF00F05DEF00F070EF66
:1000B80000F0020E0718D8A464EF00F066EF00F015
:1000C80070EF00F00850800A630FD8B06EEF00F0B0
:1000D80070EF00F0E6EF00F00704D8B476EF00F018
:1000E80078EF00F0AEEF00F0030E0718D8B47FEFFA
:1000F80000F081EF00F0AEEF00F0050E0718D8B45D
:1001080088EF00F08AEF00F0AEEF00F0070E071856
:10011800D8B491EF00F093EF00F0AEEF00F0080EC6
:100128000718D8B49AEF00F09CEF00F0AEEF00F09B
:100138000A0E0718D8B4A3EF00F0A5EF00F0AEEF51
:1001480000F00C0E0718D8A4ACEF00F0AEEF00F0EA
:10015800B8EF00F00850800A600FD8B0B6EF00F092
:10016800B8EF00F0E6EF00F0040E0718D8B4BFEFC0
:1001780000F0C1EF00F0DCEF00F0060E0718D8B46D
:10018800C8EF00F0CAEF00F0DCEF00F0090E071826
:10019800D8B4D1EF00F0D3EF00F0DCEF00F00B0E95
:1001A8000718D8A4DAEF00F0DCEF00F0FCEF00F05D
:1001B8000850800A610FD8A0E4EF00F0E6EF00F0E5
:1001C800FCEF00F00728076E010E086E0750800A42
:1001D800730FD8A0F2EF00F0F4EF00F0FCEF00F09E
:1001E800010E0524056E000E0620066E010E076E30
:1001F80020EE05F000EE05F00A0EDBCFEBFFE80677
:10020800FCE21200070E1F6EE50E1E6E0B0E206E2E
:10021800090E216E020E226E070E236E1E0E246E2C
:10022800000E256E070E266E000E276E000E286E35
:10023800ADEC05F07CEC05F09FEC05F020EE1EF02F
:1002480000EE05F00A0EDBCFEBFFE806FCE22EEC31
:1002580005F020EE1EF000EE06F00A0EDBCFEBFFF5
:10026800E806FCE209EC05F0DFEC05F069EC05F0C6
:1002780057EC04F02B04D8A444EF01F046EF01F04A
:100288005CEF01F020EE1EF000EE05F00A0EDBCF69
:10029800EBFFE806FCE28FEC05F020EE1EF00A0EFC
:1002A800EBCFDBFFE806FCE2000E2B6E78EF01F0E7
:1002B8002A04D8A462EF01F064EF01F078EF01F0AE
:1002C80020EE1EF000EE0DF00A0EDBCFEBFFE80685
:1002D800FCE22EEC03F020EE1EF00A0EEBCFDBFF63
:1002E800E806FCE2000E2A6E2904D8A47EEF01F08D
:1002F80080EF01F094EF01F020EE1EF000EE12F016
:100308000A0EDBCFEBFFE806FCE23FEC02F020EE42
:100318001EF00A0EEBCFDBFFE806FCE2000E296EAA
:1003280020EE1EF000EE10F00A0EDBCFEBFFE80621
:10033800FCE2F5EC03F020EE1EF00A0EEBCFDBFF3B
:10034800E806FCE22350ADEC01F03EEF01F02AEFA5
:1003580000F0076E07C005F0066A05BE060605A090
:10036800B8EF01F0BAEF01F0BDEF01F07F80BEEF0A
:1003780001F07F9007C005F0066A05BE060605A2D3
:10038800C8EF01F0CAEF01F0CDEF01F07F82CEEFA8
:1003980001F07F9207C005F0066A05BE060605A4AF
:1003A800D8EF01F0DAEF01F0DDEF01F07984DEEF4C
:1003B80001F0799407C005F0066A05BE060605A691
:1003C800E8EF01F0EAEF01F0EDEF01F07E8CEEEFDF
:1003D80001F07E9C07C005F0066A05BE060605A862
:1003E800F8EF01F0FAEF01F0FDEF01F07988FEEF88
:1003F80001F0799807C005F0066A05BE060605AA49
:1004080008EF02F00AEF02F00DEF02F0798A0EEF22
:1004180002F0799A07C005F0066A05BE060605AC23
:1004280018EF02F01AEF02F01DEF02F07E801EEFC7
:1004380002F07E9007C005F0066A05BE060605AE06
:1004480028EF02F02AEF02F02DEF02F07A802EEF6B
:1004580002F07A9007C005F0066A05BE060606A0F7
:1004680038EF02F03AEF02F03DEF02F07A823EEF09
:1004780002F07A9212001928196E1950800A440F56
:10048800D8A049EF02F04BEF02F0B1EF02F080A6DE
:1004980050EF02F054EF02F01D6A1D2A55EF02F0EA
:1004A8001D6A1D461D461D4680501D18F70B1D1858
:1004B800806E000E196E1828186E1850800A440FA6
:1004C800D8A069EF02F06BEF02F0B1EF02F0000E76
:1004D800186E1728176E20EE12F000EE05F00A0EBF
:1004E800DBCFEBFFE806FCE2BBEC02F020EE12F0FB
:1004F8000A0EEBCFDBFFE806FCE21750800A680F14
:10050800D8A089EF02F08BEF02F0B1EF02F0000EF5
:10051800176E1528156E20EE12F000EE05F00A0E83
:10052800DBCFEBFFE806FCE22CEC00F020EE12F04B
:100538000A0EEBCFDBFFE806FCE21628166E165013
:10054800800A780FD8A0ABEF02F0ADEF02F0B1EF60
:1005580002F0010E166EB1EF02F020EE12F000EE7E
:1005680012F00A0EDBCFEBFFE806FCE21200030EE6
:100578000718D8A4C2EF02F0C4EF02F0F0EF02F0BF
:1005880008C010F0116A10BE1106070E1026000EE2
:10059800112211BED9EF02F0115009E1200E105CB2
:1005A800D8A0D9EF02F0DBEF02F0F0EF02F0070E6F
:1005B8000918D8A4E2EF02F0E4EF02F0F0EF02F03D
:1005C8000A04D8A4EAEF02F0ECEF02F0F0EF02F030
:1005D8000A280A6E24EF03F00A0E0718D8A4F7EFCA
:1005E80002F0F9EF02F024EF03F008C010F0116AEE
:1005F80010BE1106070E1026000E112211BE0EEFB6
:1006080003F0115009E1200E105CD8A00EEF03F0A2
:1006180010EF03F024EF03F0070E0918D8A417EF22
:1006280003F019EF03F024EF03F0020E0A18D8A420
:1006380020EF03F022EF03F024EF03F00A040A6E20
:1006480020EE05F000EE05F00A0EDBCFEBFFE80622
:10065800FCE2120015501224056EE86AD8B0E82AA8
:1006680015BEE80612BEE806066E000E086E020EFB
:10067800076E93EC03F00550186E16501324056EA0
:10068800E86AD8B0E82A16BEE80613BEE806066E81
:10069800000E086E020E076E93EC03F00550196EFB
:1006A80017501424056EE86AD8B0E82A17BEE80681
:1006B80014BEE806066E000E086E020E076E93EC76
:1006C80003F005501A6E1A50145C146E14BE71EFC4
:1006D80003F06FEF03F076EF03F014503C0F146E45
:1006E8001304136E1950135C136E13BE80EF03F0DE
:1006F8007EEF03F085EF03F013503C0F136E1204E6
:10070800126E1850125C0C0F126E20EE0DF000EEF7
:100718000DF00A0EDBCFEBFFE806FCE21200000E3C
:100728000A6E08BE9CEF03F09AEF03F0A2EF03F005
:10073800076C081ED8B0082A010E0A6E06BEA9EF7B
:1007480003F0A7EF03F0AFEF03F0056C061ED8B077
:10075800062A010E0A1A000E0C6E000E0B6E0750C8
:100768000810D8B4BAEF03F0BCEF03F0E4EF03F0DD
:10077800010E096EC4EF03F0D89007360836092A2F
:1007880008AEC9EF03F0CBEF03F0C0EF03F0D89049
:100798000B360C360750055C08500658D8A0D7EF22
:1007A80003F0D9EF03F0DEEF03F00750055E0850C1
:1007B800065A0B80D89008320732092ECBEF03F087
:1007C8000A50D8B4EAEF03F0ECEF03F0F0EF03F0CF
:1007D8000B6C0C1ED8B00C2A0BC005F00CC006F030
:1007E80012001504D8A4FBEF03F0FDEF03F012EF9D
:1007F80004F01650D8A403EF04F005EF04F012EF4C
:1008080004F01750D8A40BEF04F00DEF04F012EF2A
:1008180004F00E012B917C9E4DEF04F0050E151887
:10082800D8A419EF04F01BEF04F04DEF04F01650B4
:10083800D8A421EF04F023EF04F04DEF04F0175093
:10084800D8A429EF04F02BEF04F04DEF04F00E01CB
:100858002B81BAEC05F01B6EDD0E1B6436EF04F03D
:1008680038EF04F03BEF04F07C8E4DEF04F020EEFF
:1008780010F000EE05F00A0EDBCFEBFFE806FCE215
:100888008FEC05F020EE10F00A0EEBCFDBFFE80648
:10089800FCE220EE10F000EE10F00A0EDBCFEBFFCA
:1008A800E806FCE21200839C8394829682948596E3
:1008B80085927B9C7B947A967A947D967D92040EA1
:1008C800096EA80E086E0C0EE82EFED7082EFCD76F
:1008D800092EFAD7020EABEC04F0F00EE82EFED784
:1008E800000E066E280E4FEC05F0F00EE82EFED72F
:1008F800000E066E280E4FEC05F0F00EE82EFED71F
:10090800000E066E080E4FEC05F0F00EE82EFED72E
:10091800000E066E010E4FEC05F02A0E086E8E0EC4
:10092800E82EFED7082EFCD7000E066E060E4FECFA
:1009380005F0A00E00D0E82EFDD7000E066E0C0EB6
:100948004FEC05F0A00E00D0E82EFDD71200056E82
:1009580005A0B1EF04F0B3EF04F0B6EF04F07A8627
:10096800B7EF04F07A9605A2BCEF04F0BEEF04F0EE
:10097800C1EF04F07A84C2EF04F07A9405A4C7EFBB
:1009880004F0C9EF04F0CCEF04F07D86CDEF04F05D
:100998007D9605A6D2EF04F0D4EF04F0D7EF04F06B
:1009A8007D82D8EF04F07D92D8EC05F01A0EE82E7F
:1009B800FED700D012000E0135A1E5EF04F0E7EFF5
:1009C80004F007EF05F07CAEECEF04F0F0EF04F074
:1009D800016A012AF1EF04F0016A013201327C5008
:1009E80001187F0B01187C6E7CBEFDEF04F0FFEF51
:1009F80004F003EF05F0010E2B6E05EF05F0010E74
:100A08002A6E0E0135912C921100BAEC05F0116E88
:100A1800DD0E116412EF05F014EF05F02BEF05F071
:100A28000B50800A7F0FD8A01CEF05F01EEF05F0D1
:100A380028EF05F00B50800A7B0FD8A026EF05F0B1
:100A480028EF05F02BEF05F07C8E2CEF05F07C9E4F
:100A5800849E12000A50800A7F0FD8A036EF05F056
:100A680038EF05F042EF05F00A50800A7B0FD8A056
:100A780040EF05F042EF05F046EF05F00E012B813F
:100A880048EF05F00E012B91298B21811F9BF28ADB
:100A9800F28CF28E1200076E0650D8B456EF05F0AD
:100AA80058EF05F05BEF05F07B8C5CEF05F07B9C65
:100AB80007380F0BABEC04F007500F0BABEC04F04E
:100AC800A00E00D0E82EFDD712007F907F92799477
:100AD8007E9C7998799A7E907A907A92879087927C
:100AE8008194869C8198819A869082908292120045
:100AF800868E0E01D251F80B0309D26FD351F80B31
:100B08000509D36FD083D089D183D181C6EC05F094
:100B18000E01D08F12000AC00DF00BC00EF00CC0F1
:100B28000FF020EE05F000EE05F00A0EDBCFEBFF2C
:100B3800E806FCE21200D6501F0B4009D66ED68894
:100B4800F00ED616D588EE0ED46EA30ED36ED58EC3
:100B58001200868E0E01B48F0F015899FC0E58179B
:100B68002F0E5F6F60946088608E1200608060B0A6
:100B7800C0EF05F0C2EF05F0BBEF05F064CF05F05C
:100B880005501200F30E0E01C617C691C751E00BAF
:100B98001B09C76FC68F12002B6A2A6A296A2C9014
:100BA8002C92000106EF01F07B840A0EE82EFED796
:0C0BB80000D07B9412008086889612000A
:020000040020DA
:10000000FF0FFF0FFF0FFF0FFF0FFF0FFF0FFF0F80
:020000040030CA
:0C000000AAFFFFFF9FFFFFFFFFFFFFFFB5
:00000001FF
