:040000002AEF00F0F3
:060008003482C2EF04F097
:100018003480D8CF02F0E8CF03F0E0CF04F00E012F
:1000280033AB19EF00F01BEF00F022EF00F0EE0EFB
:10003800D46EA30ED36E010E316E339B04C0E0FF65
:1000480003C0E8FF02C0D8FF34901000B3EF05F0FA
:10005800030E0514106E000E0614116E10501110C8
:10006800D8A439EF00F03BEF00F04EEF00F0020E9D
:100078000718D8A442EF00F044EF00F04EEF00F06C
:100088000850800A620FD8B04CEF00F04EEF00F035
:10009800E6EF00F0030E0514106E000E0614116E44
:1000A80010501110D8B45BEF00F05DEF00F070EF66
:1000B80000F0020E0718D8A464EF00F066EF00F015
:1000C80070EF00F00850800A630FD8B06EEF00F0B0
:1000D80070EF00F0E6EF00F00704D8B476EF00F018
:1000E80078EF00F0AEEF00F0030E0718D8B47FEFFA
:1000F80000F081EF00F0AEEF00F0050E0718D8B45D
:1001080088EF00F08AEF00F0AEEF00F0070E071856
:10011800D8B491EF00F093EF00F0AEEF00F0080EC6
:100128000718D8B49AEF00F09CEF00F0AEEF00F09B
:100138000A0E0718D8B4A3EF00F0A5EF00F0AEEF51
:1001480000F00C0E0718D8A4ACEF00F0AEEF00F0EA
:10015800B8EF00F00850800A600FD8B0B6EF00F092
:10016800B8EF00F0E6EF00F0040E0718D8B4BFEFC0
:1001780000F0C1EF00F0DCEF00F0060E0718D8B46D
:10018800C8EF00F0CAEF00F0DCEF00F0090E071826
:10019800D8B4D1EF00F0D3EF00F0DCEF00F00B0E95
:1001A8000718D8A4DAEF00F0DCEF00F0FCEF00F05D
:1001B8000850800A610FD8A0E4EF00F0E6EF00F0E5
:1001C800FCEF00F00728076E010E086E0750800A42
:1001D800730FD8A0F2EF00F0F4EF00F0FCEF00F09E
:1001E800010E0524056E000E0620066E010E076E30
:1001F80020EE05F000EE05F00A0EDBCFEBFFE80677
:10020800FCE212003104D8A40CEF01F00EEF01F06B
:1002180080EF01F01928196E1950800A440FD8A0F0
:1002280018EF01F01AEF01F07EEF01F080A61FEF42
:1002380001F023EF01F01D6A1D2A24EF01F01D6A69
:100248001D461D461D4680501D18F70B1D18806E53
:10025800000E196E1828186E1850800A440FD8A07E
:1002680038EF01F03AEF01F07EEF01F0000E186E62
:100278001728176E20EE12F000EE05F00A0EDBCFFD
:10028800EBFFE806FCE2FFEC01F020EE12F00A0EAC
:10029800EBCFDBFFE806FCE21750800A680FD8A016
:1002A80058EF01F05AEF01F07EEF01F0000E176EE3
:1002B8001528156E20EE12F000EE05F00A0EDBCFC1
:1002C800EBFFE806FCE22CEC00F020EE12F00A0E40
:1002D800EBCFDBFFE806FCE21628166E1650800A04
:1002E800780FD8A07AEF01F07CEF01F07EEF01F0F3
:1002F800010E166E000E316E20EE12F000EE12F0B6
:100308000A0EDBCFEBFFE806FCE21200070E276EB1
:10031800E50E266E0B0E286E090E296E020E2A6E49
:10032800070E2B6E1E0E2C6E000E2D6E070E2E6EF7
:10033800000E2F6E000E306E90EC05F05FEC05F0AD
:1003480082EC05F020EE26F000EE05F00A0EDBCF79
:10035800EBFFE806FCE211EC05F020EE26F000EEDB
:1003680006F00A0EDBCFEBFFE806FCE2ECEC04F04B
:10037800C2EC05F04CEC05F0F6EC03F020EE26F0AC
:1003880000EE1BF00A0EDBCFEBFFE806FCE24AECBE
:1003980004F020EE26F00A0EEBCFDBFFE806FCE2C5
:1003A80020EE26F000EE12F00A0EDBCFEBFFE80697
:1003B800FCE206EC01F020EE26F00A0EEBCFDBFFA4
:1003C800E806FCE220EE26F000EE10F00A0EDBCF85
:1003D800EBFFE806FCE239EC03F020EE26F00A0E0B
:1003E800EBCFDBFFE806FCE22B509BEC03F0C2EFFF
:1003F80001F02AEF00F0030E0718D8A406EF02F068
:1004080008EF02F034EF02F008C010F0116A10BED5
:100418001106070E1026000E112211BE1DEF02F064
:10042800115009E1200E105CD8A01DEF02F01FEF5B
:1004380002F034EF02F0070E0918D8A426EF02F0F4
:1004480028EF02F034EF02F00A04D8A42EEF02F0ED
:1004580030EF02F034EF02F00A280A6E68EF02F07B
:100468000A0E0718D8A43BEF02F03DEF02F068EF40
:1004780002F008C010F0116A10BE1106070E10260F
:10048800000E112211BE52EF02F0115009E1200EA8
:10049800105CD8A052EF02F054EF02F068EF02F0BF
:1004A800070E0918D8A45BEF02F05DEF02F068EFC1
:1004B80002F0020E0A18D8A464EF02F066EF02F008
:1004C80068EF02F00A040A6E20EE05F000EE05F06F
:1004D8000A0EDBCFEBFFE806FCE2120015501224EF
:1004E800056EE86AD8B0E82A15BEE80612BEE80626
:1004F800066E000E086E020E076ED7EC02F005506D
:10050800186E16501324056EE86AD8B0E82A16BE8D
:10051800E80613BEE806066E000E086E020E076EA9
:10052800D7EC02F00550196E17501424056EE86ACE
:10053800D8B0E82A17BEE80614BEE806066E000E14
:10054800086E020E076ED7EC02F005501A6E1A50AC
:10055800145C146E14BEB5EF02F0B3EF02F0BAEFFC
:1005680002F014503C0F146E1304136E1950135CF0
:10057800136E13BEC4EF02F0C2EF02F0C9EF02F02F
:1005880013503C0F136E1204126E1850125C0C0FAD
:10059800126E20EE0DF000EE0DF00A0EDBCFEBFF31
:1005A800E806FCE21200000E0A6E08BEE0EF02F058
:1005B800DEEF02F0E6EF02F0076C081ED8B0082A5A
:1005C800010E0A6E06BEEDEF02F0EBEF02F0F3EF5C
:1005D80002F0056C061ED8B0062A010E0A1A000E93
:1005E8000C6E000E0B6E07500810D8B4FEEF02F028
:1005F80000EF03F028EF03F0010E096E08EF03F097
:10060800D89007360836092A08AE0DEF03F00FEF29
:1006180003F004EF03F0D8900B360C360750055C56
:1006280008500658D8A01BEF03F01DEF03F022EF87
:1006380003F00750055E0850065A0B80D890083220
:100648000732092E0FEF03F00A50D8B42EEF03F04B
:1006580030EF03F034EF03F00B6C0C1ED8B00C2A0B
:100668000BC005F00CC006F012001504D8A43FEF2B
:1006780003F041EF03F056EF03F01650D8A447EF0C
:1006880003F049EF03F056EF03F01750D8A44FEFEB
:1006980003F051EF03F056EF03F00E012B917C9E0F
:1006A80091EF03F0050E1518D8A45DEF03F05FEF86
:1006B80003F091EF03F01650D8A465EF03F067EF4D
:1006C80003F091EF03F01750D8A46DEF03F06FEF2C
:1006D80003F091EF03F00E012B819DEC05F01B6EEA
:1006E800DD0E1B647AEF03F07CEF03F07FEF03F07D
:1006F8007C8E91EF03F020EE10F000EE05F00A0E6C
:10070800DBCFEBFFE806FCE272EC05F020EE10F020
:100718000A0EEBCFDBFFE806FCE220EE10F000EE5D
:1007280010F00A0EDBCFEBFFE806FCE21200056EC4
:1007380005A0A1EF03F0A3EF03F0A6EF03F07F807D
:10074800A7EF03F07F9005A2ACEF03F0AEEF03F044
:10075800B1EF03F07F82B2EF03F07F9205A4B7EF09
:1007680003F0B9EF03F0BCEF03F07984BDEF03F0B9
:10077800799405A6C2EF03F0C4EF03F0C7EF03F0C6
:100788007E8CC8EF03F07E9C05A8CDEF03F0CFEF79
:1007980003F0D2EF03F07988D3EF03F0799805AA34
:1007A800D8EF03F0DAEF03F0DDEF03F0798ADEEF3C
:1007B80003F0799A05ACE3EF03F0E5EF03F0E8EF17
:1007C80003F07E80E9EF03F07E9005AEEEEF03F0D4
:1007D800F0EF03F0F3EF03F07A80F4EF03F07A9090
:1007E8007A921200839C839482968294859685924D
:1007F8007B9C7B947A967A947D967D92040E096E02
:10080800A80E086E0C0EE82EFED7082EFCD7092E6F
:10081800FAD7020E8EEC04F0F00EE82EFED7000E8A
:10082800066E280E32EC05F0F00EE82EFED7000E0C
:10083800066E280E32EC05F0F00EE82EFED7000EFC
:10084800066E080E32EC05F0F00EE82EFED7000E0C
:10085800066E010E32EC05F02A0E086E8E0EE82E9A
:10086800FED7082EFCD7000E066E060E32EC05F0F9
:10087800A00E00D0E82EFDD7000E066E0C0E32EC4E
:1008880005F0A00E00D0E82EFDD712003304D8A43E
:1008980050EF04F052EF04F068EF04F020EE1BF084
:1008A80000EE05F00A0EDBCFEBFFE806FCE272EC87
:1008B80005F020EE1BF00A0EEBCFDBFFE806FCE2AA
:1008C800000E336E84EF04F03204D8A46EEF04F007
:1008D80070EF04F084EF04F020EE1BF000EE0DF052
:1008E8000A0EDBCFEBFFE806FCE272EC02F020EE2A
:1008F8001BF00A0EEBCFDBFFE806FCE2000E326EBF
:1009080020EE1BF000EE1BF00A0EDBCFEBFFE80633
:10091800FCE21200056E05A094EF04F096EF04F0D7
:1009280099EF04F07A869AEF04F07A9605A29FEF81
:1009380004F0A1EF04F0A4EF04F07A84A5EF04F02A
:100948007A9405A4AAEF04F0ACEF04F0AFEF04F03A
:100958007D86B0EF04F07D9605A6B5EF04F0B7EFFD
:1009680004F0BAEF04F07D82BBEF04F07D92BBEC9B
:1009780005F01A0EE82EFED700D012000E0135A1A0
:10098800C8EF04F0CAEF04F0EAEF04F07CAECFEF52
:1009980004F0D3EF04F0016A012AD4EF04F0016AED
:1009A800013201327C5001187F0B01187C6E7CBE2D
:1009B800E0EF04F0E2EF04F0E6EF04F0010E336E2E
:1009C800E8EF04F0010E326E0E01359134921100F9
:1009D8000B50800A7F0FD8A0F4EF04F0F6EF04F074
:1009E80000EF05F00B50800A7B0FD8A0FEEF04F053
:1009F80000EF05F00EEF05F09DEC05F0116EDD0E31
:100A0800116409EF05F00BEF05F00EEF05F07C8E91
:100A18000FEF05F07C9E849E12000A50800A7F0F1B
:100A2800D8A019EF05F01BEF05F025EF05F00A50E7
:100A3800800A7B0FD8A023EF05F025EF05F029EFFA
:100A480005F00E012B812BEF05F00E012B91298B60
:100A580021811F9BF28AF28CF28E1200076E0650DB
:100A6800D8B439EF05F03BEF05F03EEF05F07B8C8D
:100A78003FEF05F07B9C07380F0B8EEC04F0075016
:100A88000F0B8EEC04F0A00E00D0E82EFDD712005C
:100A98007F907F9279947E9C7998799A7E907A90CB
:100AA8007A92879087928194869C8198819A869081
:100AB800829082921200868E0E01D251F80B0309A1
:100AC800D26FD351F80B0509D36FD083D089D18366
:100AD800D181A9EC05F00E01D08F12000AC00DF0EB
:100AE8000BC00EF00CC00FF020EE05F000EE05F084
:100AF8000A0EDBCFEBFFE806FCE21200D6501F0B14
:100B08004009D66ED688F00ED616D588EE0ED46E6D
:100B1800A30ED36ED58E1200868E0E01B48F0F01F0
:100B28005899FC0E58172F0E5F6F60946088608E7E
:100B38001200608060B0A3EF05F0A5EF05F09EEF0E
:100B480005F064CF05F005501200F30E0E01C6172C
:100B5800C691C751E00B1B09C76FC68F1200336AD5
:100B6800326A316A3490349200018AEF01F07B8452
:100B78000A0EE82EFED700D07B9412008086889655
:020B8800120059
:020000040020DA
:10000000FF0FFF0FFF0FFF0FFF0FFF0FFF0FFF0F80
:020000040030CA
:0C000000AAFFFFFF9FFFFFFFFFFFFFFFB5
:00000001FF
